{
  "contractName": "Escrow",
  "abi": [
    {
      "inputs": [
        {
          "internalType": "address",
          "name": "_shelter",
          "type": "address"
        }
      ],
      "stateMutability": "nonpayable",
      "type": "constructor"
    },
    {
      "anonymous": false,
      "inputs": [
        {
          "indexed": false,
          "internalType": "uint256",
          "name": "",
          "type": "uint256"
        }
      ],
      "name": "NewBounty",
      "type": "event"
    },
    {
      "anonymous": false,
      "inputs": [
        {
          "indexed": true,
          "internalType": "address",
          "name": "previousOwner",
          "type": "address"
        },
        {
          "indexed": true,
          "internalType": "address",
          "name": "newOwner",
          "type": "address"
        }
      ],
      "name": "OwnershipTransferred",
      "type": "event"
    },
    {
      "inputs": [],
      "name": "charity",
      "outputs": [
        {
          "internalType": "address",
          "name": "",
          "type": "address"
        }
      ],
      "stateMutability": "view",
      "type": "function"
    },
    {
      "inputs": [],
      "name": "owner",
      "outputs": [
        {
          "internalType": "address",
          "name": "",
          "type": "address"
        }
      ],
      "stateMutability": "view",
      "type": "function"
    },
    {
      "inputs": [],
      "name": "renounceOwnership",
      "outputs": [],
      "stateMutability": "nonpayable",
      "type": "function"
    },
    {
      "inputs": [],
      "name": "shelterToken",
      "outputs": [
        {
          "internalType": "contract IERC20",
          "name": "",
          "type": "address"
        }
      ],
      "stateMutability": "view",
      "type": "function"
    },
    {
      "inputs": [],
      "name": "timeLock",
      "outputs": [
        {
          "internalType": "uint256",
          "name": "",
          "type": "uint256"
        }
      ],
      "stateMutability": "view",
      "type": "function"
    },
    {
      "inputs": [],
      "name": "timeLockBuffer",
      "outputs": [
        {
          "internalType": "uint256",
          "name": "",
          "type": "uint256"
        }
      ],
      "stateMutability": "view",
      "type": "function"
    },
    {
      "inputs": [
        {
          "internalType": "address",
          "name": "newOwner",
          "type": "address"
        }
      ],
      "name": "transferOwnership",
      "outputs": [],
      "stateMutability": "nonpayable",
      "type": "function"
    },
    {
      "inputs": [
        {
          "internalType": "uint256",
          "name": "_amount",
          "type": "uint256"
        }
      ],
      "name": "newBounty",
      "outputs": [],
      "stateMutability": "nonpayable",
      "type": "function"
    },
    {
      "inputs": [
        {
          "internalType": "uint256",
          "name": "_i",
          "type": "uint256"
        },
        {
          "internalType": "address",
          "name": "_recipient",
          "type": "address"
        }
      ],
      "name": "closeBounty",
      "outputs": [],
      "stateMutability": "nonpayable",
      "type": "function"
    },
    {
      "inputs": [
        {
          "internalType": "uint256",
          "name": "_timeLock",
          "type": "uint256"
        }
      ],
      "name": "changeTimeLock",
      "outputs": [],
      "stateMutability": "nonpayable",
      "type": "function"
    },
    {
      "inputs": [],
      "name": "liquidate",
      "outputs": [],
      "stateMutability": "nonpayable",
      "type": "function"
    }
  ],
  "bytecode": "0x60a060405260006003553480156200001657600080fd5b50604051620015a0380380620015a083398181016040528101906200003c91906200017d565b6200005c620000506200009a60201b60201c565b620000a260201b60201c565b8073ffffffffffffffffffffffffffffffffffffffff1660808173ffffffffffffffffffffffffffffffffffffffff1660601b8152505050620001f7565b600033905090565b60008060009054906101000a900473ffffffffffffffffffffffffffffffffffffffff169050816000806101000a81548173ffffffffffffffffffffffffffffffffffffffff021916908373ffffffffffffffffffffffffffffffffffffffff1602179055508173ffffffffffffffffffffffffffffffffffffffff168173ffffffffffffffffffffffffffffffffffffffff167f8be0079c531659141344cd1fd0a4f28419497f9722a3daafe3b4186f6b6457e060405160405180910390a35050565b6000815190506200017781620001dd565b92915050565b6000602082840312156200019057600080fd5b6000620001a08482850162000166565b91505092915050565b6000620001b682620001bd565b9050919050565b600073ffffffffffffffffffffffffffffffffffffffff82169050919050565b620001e881620001a9565b8114620001f457600080fd5b50565b60805160601c6113756200022b600039600081816103ae015281816104b7015281816109020152610aa101526113756000f3fe608060405234801561001057600080fd5b50600436106100a95760003560e01c80637ad28c51116100715780637ad28c51146101185780638da5cb5b14610134578063934aa02314610152578063d085835a14610170578063d83189a01461018e578063f2fde38b146101ac576100a9565b806328a07025146100ae5780636c21848b146100b8578063715018a6146100d45780637379ef58146100de5780637648580a146100fc575b600080fd5b6100b66101c8565b005b6100d260048036038101906100cd9190610d18565b610471565b005b6100dc610669565b005b6100e66106f1565b6040516100f39190610fd2565b60405180910390f35b61011660048036038101906101119190610d41565b6106f7565b005b610132600480360381019061012d9190610d18565b6109b3565b005b61013c610a58565b6040516101499190610e7c565b60405180910390f35b61015a610a81565b6040516101679190610e7c565b60405180910390f35b610178610a99565b6040516101859190610fd2565b60405180910390f35b610196610a9f565b6040516101a39190610ef7565b60405180910390f35b6101c660048036038101906101c19190610cc6565b610ac3565b005b600154421161020c576040517f08c379a000000000000000000000000000000000000000000000000000000000815260040161020390610fb2565b60405180910390fd5b60008060035490505b6004805490508110156103ab576004818154811061025c577f4e487b7100000000000000000000000000000000000000000000000000000000600052603260045260246000fd5b9060005260206000209060030201600101546002544261027c9190610ffe565b111561038c576000600482815481106102be577f4e487b7100000000000000000000000000000000000000000000000000000000600052603260045260246000fd5b906000526020600020906003020160000154111561038757600060048281548110610312577f4e487b7100000000000000000000000000000000000000000000000000000000600052603260045260246000fd5b9060005260206000209060030201600001549050600060048381548110610362577f4e487b7100000000000000000000000000000000000000000000000000000000600052603260045260246000fd5b90600052602060002090600302016000018190555080836103839190610ffe565b9250505b610398565b806003819055506103ab565b80806103a3906110f4565b915050610215565b507f000000000000000000000000000000000000000000000000000000000000000073ffffffffffffffffffffffffffffffffffffffff1663a9059cbb73b5bc62c665c13590188477dfd83f33631c1da0ba836040518363ffffffff1660e01b815260040161041b929190610ece565b602060405180830381600087803b15801561043557600080fd5b505af1158015610449573d6000803e3d6000fd5b505050506040513d601f19601f8201168201806040525081019061046d9190610cef565b5050565b60008114156104b5576040517f08c379a00000000000000000000000000000000000000000000000000000000081526004016104ac90610f32565b60405180910390fd5b7f000000000000000000000000000000000000000000000000000000000000000073ffffffffffffffffffffffffffffffffffffffff166323b872dd3330846040518463ffffffff1660e01b815260040161051293929190610e97565b602060405180830381600087803b15801561052c57600080fd5b505af1158015610540573d6000803e3d6000fd5b505050506040513d601f19601f820116820180604052508101906105649190610cef565b50600460405180606001604052808381526020014281526020013373ffffffffffffffffffffffffffffffffffffffff168152509080600181540180825580915050600190039060005260206000209060030201600090919091909150600082015181600001556020820151816001015560408201518160020160006101000a81548173ffffffffffffffffffffffffffffffffffffffff021916908373ffffffffffffffffffffffffffffffffffffffff16021790555050507f69d1cf57b9cfe5b3ea3c72cc2f04618d50abb239088b57f52b764a59ede7178560016004805490506106519190611054565b60405161065e9190610fd2565b60405180910390a150565b610671610bbb565b73ffffffffffffffffffffffffffffffffffffffff1661068f610a58565b73ffffffffffffffffffffffffffffffffffffffff16146106e5576040517f08c379a00000000000000000000000000000000000000000000000000000000081526004016106dc90610f72565b60405180910390fd5b6106ef6000610bc3565b565b60015481565b600060048381548110610733577f4e487b7100000000000000000000000000000000000000000000000000000000600052603260045260246000fd5b9060005260206000209060030201600001541415610786576040517f08c379a000000000000000000000000000000000000000000000000000000000815260040161077d90610f92565b60405180910390fd5b3373ffffffffffffffffffffffffffffffffffffffff16600483815481106107d7577f4e487b7100000000000000000000000000000000000000000000000000000000600052603260045260246000fd5b906000526020600020906003020160020160009054906101000a900473ffffffffffffffffffffffffffffffffffffffff1673ffffffffffffffffffffffffffffffffffffffff161461085f576040517f08c379a000000000000000000000000000000000000000000000000000000000815260040161085690610f52565b60405180910390fd5b60006004838154811061089b577f4e487b7100000000000000000000000000000000000000000000000000000000600052603260045260246000fd5b90600052602060002090600302016000015490506000600484815481106108eb577f4e487b7100000000000000000000000000000000000000000000000000000000600052603260045260246000fd5b9060005260206000209060030201600001819055507f000000000000000000000000000000000000000000000000000000000000000073ffffffffffffffffffffffffffffffffffffffff1663a9059cbb83836040518363ffffffff1660e01b815260040161095b929190610ece565b602060405180830381600087803b15801561097557600080fd5b505af1158015610989573d6000803e3d6000fd5b505050506040513d601f19601f820116820180604052508101906109ad9190610cef565b50505050565b6109bb610bbb565b73ffffffffffffffffffffffffffffffffffffffff166109d9610a58565b73ffffffffffffffffffffffffffffffffffffffff1614610a2f576040517f08c379a0000000000000000000000000000000000000000000000000000000008152600401610a2690610f72565b60405180910390fd5b600254811015610a4e5760025442610a479190610ffe565b6001819055505b8060028190555050565b60008060009054906101000a900473ffffffffffffffffffffffffffffffffffffffff16905090565b73b5bc62c665c13590188477dfd83f33631c1da0ba81565b60025481565b7f000000000000000000000000000000000000000000000000000000000000000081565b610acb610bbb565b73ffffffffffffffffffffffffffffffffffffffff16610ae9610a58565b73ffffffffffffffffffffffffffffffffffffffff1614610b3f576040517f08c379a0000000000000000000000000000000000000000000000000000000008152600401610b3690610f72565b60405180910390fd5b600073ffffffffffffffffffffffffffffffffffffffff168173ffffffffffffffffffffffffffffffffffffffff161415610baf576040517f08c379a0000000000000000000000000000000000000000000000000000000008152600401610ba690610f12565b60405180910390fd5b610bb881610bc3565b50565b600033905090565b60008060009054906101000a900473ffffffffffffffffffffffffffffffffffffffff169050816000806101000a81548173ffffffffffffffffffffffffffffffffffffffff021916908373ffffffffffffffffffffffffffffffffffffffff1602179055508173ffffffffffffffffffffffffffffffffffffffff168173ffffffffffffffffffffffffffffffffffffffff167f8be0079c531659141344cd1fd0a4f28419497f9722a3daafe3b4186f6b6457e060405160405180910390a35050565b600081359050610c96816112fa565b92915050565b600081519050610cab81611311565b92915050565b600081359050610cc081611328565b92915050565b600060208284031215610cd857600080fd5b6000610ce684828501610c87565b91505092915050565b600060208284031215610d0157600080fd5b6000610d0f84828501610c9c565b91505092915050565b600060208284031215610d2a57600080fd5b6000610d3884828501610cb1565b91505092915050565b60008060408385031215610d5457600080fd5b6000610d6285828601610cb1565b9250506020610d7385828601610c87565b9150509250929050565b610d8681611088565b82525050565b610d95816110d0565b82525050565b6000610da8602683610fed565b9150610db38261116c565b604082019050919050565b6000610dcb601883610fed565b9150610dd6826111bb565b602082019050919050565b6000610dee601c83610fed565b9150610df9826111e4565b602082019050919050565b6000610e11602083610fed565b9150610e1c8261120d565b602082019050919050565b6000610e34601283610fed565b9150610e3f82611236565b602082019050919050565b6000610e57606783610fed565b9150610e628261125f565b608082019050919050565b610e76816110c6565b82525050565b6000602082019050610e916000830184610d7d565b92915050565b6000606082019050610eac6000830186610d7d565b610eb96020830185610d7d565b610ec66040830184610e6d565b949350505050565b6000604082019050610ee36000830185610d7d565b610ef06020830184610e6d565b9392505050565b6000602082019050610f0c6000830184610d8c565b92915050565b60006020820190508181036000830152610f2b81610d9b565b9050919050565b60006020820190508181036000830152610f4b81610dbe565b9050919050565b60006020820190508181036000830152610f6b81610de1565b9050919050565b60006020820190508181036000830152610f8b81610e04565b9050919050565b60006020820190508181036000830152610fab81610e27565b9050919050565b60006020820190508181036000830152610fcb81610e4a565b9050919050565b6000602082019050610fe76000830184610e6d565b92915050565b600082825260208201905092915050565b6000611009826110c6565b9150611014836110c6565b9250827fffffffffffffffffffffffffffffffffffffffffffffffffffffffffffffffff038211156110495761104861113d565b5b828201905092915050565b600061105f826110c6565b915061106a836110c6565b92508282101561107d5761107c61113d565b5b828203905092915050565b6000611093826110a6565b9050919050565b60008115159050919050565b600073ffffffffffffffffffffffffffffffffffffffff82169050919050565b6000819050919050565b60006110db826110e2565b9050919050565b60006110ed826110a6565b9050919050565b60006110ff826110c6565b91507fffffffffffffffffffffffffffffffffffffffffffffffffffffffffffffffff8214156111325761113161113d565b5b600182019050919050565b7f4e487b7100000000000000000000000000000000000000000000000000000000600052601160045260246000fd5b7f4f776e61626c653a206e6577206f776e657220697320746865207a65726f206160008201527f6464726573730000000000000000000000000000000000000000000000000000602082015250565b7f63616e6e6f7420736574206120626f756e7479206f6620300000000000000000600082015250565b7f4d757374206265207468652073706f6e736f7220746f20636c6f736500000000600082015250565b7f4f776e61626c653a2063616c6c6572206973206e6f7420746865206f776e6572600082015250565b7f7468657265206973206e6f20626f756e74790000000000000000000000000000600082015250565b7f546865726520697320612062756666657220696e20706c61636520647565207460008201527f6f206120726563656e7420646563726561736520696e207468652074696d652060208201527f6c6f636b20706572696f642e20596f75206d757374207761697420746f206c6960408201527f7175696461746500000000000000000000000000000000000000000000000000606082015250565b61130381611088565b811461130e57600080fd5b50565b61131a8161109a565b811461132557600080fd5b50565b611331816110c6565b811461133c57600080fd5b5056fea26469706673582212208575af2518d6d70f3f53be1c4def6e665e1b75370dad7fdccb1866a5ad7d485864736f6c63430008040033",
  "immutableReferences": {
    "11": [
      {
        "length": 32,
        "start": 942
      },
      {
        "length": 32,
        "start": 1207
      },
      {
        "length": 32,
        "start": 2306
      },
      {
        "length": 32,
        "start": 2721
      }
    ]
  },
  "source": "//SPDX-License-Identifier: None\npragma solidity ^0.8.0;\n\nimport \"@openzeppelin/contracts/token/ERC20/IERC20.sol\";\nimport \"@openzeppelin/contracts/access/Ownable.sol\";\n\ncontract Escrow is Ownable{\n    address public constant charity = 0xb5bc62c665c13590188477dfD83F33631C1Da0ba;\n    IERC20 public immutable shelterToken;\n\n    uint public timeLockBuffer;\n    uint public timeLock;\n    uint private boutiesIndex = 0;\n\n    struct bounty{\n        uint amount;\n        uint timestamp;\n        address sponsor;\n    }\n\n    bounty[] bounties;\n\n    constructor(address _shelter){\n        shelterToken = IERC20(_shelter);\n    }\n\n    event NewBounty(uint);\n\n    /// @dev create a new charity bounty\n    function newBounty(uint _amount)external{\n        require(_amount != 0, \"cannot set a bounty of 0\");\n        shelterToken.transferFrom(msg.sender, address(this), _amount);\n\n        bounties.push(\n            bounty({\n                amount: _amount,\n                timestamp: block.timestamp,\n                sponsor: msg.sender\n            })\n        );\n        emit NewBounty(bounties.length - 1);\n    }\n\n    /// @dev closeBounty callable by a bounty's creator\n    function closeBounty(uint _i, address _recipient)external{\n        require(bounties[_i].amount != 0, \"there is no bounty\");\n        require(bounties[_i].sponsor == msg.sender, \"Must be the sponsor to close\");\n        uint temp = bounties[_i].amount;\n        bounties[_i].amount = 0;\n        shelterToken.transfer(_recipient, temp);\n    }\n\n    /// @dev owner to change the timelock expiration date on bounties\n    function changeTimeLock(uint _timeLock) external onlyOwner{\n        //If you are decreasing timelock, then update the buffer\n        //Must wait to liquidate until people who are instantly eligible for liquidation becaues of a time lock change\n        //have waited long enough to be eligible for a liquidation based on the old time lock.\n        if(_timeLock < timeLock){\n            timeLockBuffer = block.timestamp + timeLock;\n        }\n        timeLock = _timeLock;\n    }\n\n    /// @dev liquidate all the bounties that are expired\n    function liquidate()external{\n        require(block.timestamp > timeLockBuffer, \"There is a buffer in place due to a recent decrease in the time lock period. You must wait to liquidate\");\n        uint liquidations = 0;\n        //Starting from the oldest non-liquidated bounty loop\n        for(uint i = boutiesIndex; i < bounties.length; i++){\n            //If bounty expired\n            if(block.timestamp + timeLock > bounties[i].timestamp){\n                //if outstanding balance still\n                if(bounties[i].amount > 0){\n                    uint temp = bounties[i].amount;\n                    bounties[i].amount = 0;\n                    liquidations += temp;\n                }\n            //Once we get to a non-expired bounty\n            }else{\n                //update the bounties index and break\n                boutiesIndex = i;\n                break;\n            }\n        }\n        //send liquidated balance to charity\n        shelterToken.transfer(charity, liquidations);\n    }\n}",
  "sourcePath": "/home/carsoncase/Documents/programming/blockchain/Shelter/contracts/Escrow.sol",
  "compiler": {
    "name": "solc",
    "version": "0.8.4+commit.c7e474f2.Emscripten.clang"
  },
  "schemaVersion": "3.4.1",
  "updatedAt": "2021-07-08T19:57:06.323Z",
  "devdoc": {
    "kind": "dev",
    "methods": {
      "changeTimeLock(uint256)": {
        "details": "owner to change the timelock expiration date on bounties"
      },
      "closeBounty(uint256,address)": {
        "details": "closeBounty callable by a bounty's creator"
      },
      "liquidate()": {
        "details": "liquidate all the bounties that are expired"
      },
      "newBounty(uint256)": {
        "details": "create a new charity bounty"
      },
      "owner()": {
        "details": "Returns the address of the current owner."
      },
      "renounceOwnership()": {
        "details": "Leaves the contract without owner. It will not be possible to call `onlyOwner` functions anymore. Can only be called by the current owner. NOTE: Renouncing ownership will leave the contract without an owner, thereby removing any functionality that is only available to the owner."
      },
      "transferOwnership(address)": {
        "details": "Transfers ownership of the contract to a new account (`newOwner`). Can only be called by the current owner."
      }
    },
    "version": 1
  },
  "userdoc": {
    "kind": "user",
    "methods": {},
    "version": 1
  }
}