{
  "contractName": "PresaleToken",
  "abi": [
    {
      "inputs": [
        {
          "internalType": "string",
          "name": "_name",
          "type": "string"
        },
        {
          "internalType": "string",
          "name": "_symbol",
          "type": "string"
        },
        {
          "internalType": "address[]",
          "name": "_investors",
          "type": "address[]"
        },
        {
          "internalType": "uint256[]",
          "name": "_amounts",
          "type": "uint256[]"
        }
      ],
      "stateMutability": "nonpayable",
      "type": "constructor"
    },
    {
      "anonymous": false,
      "inputs": [
        {
          "indexed": true,
          "internalType": "address",
          "name": "owner",
          "type": "address"
        },
        {
          "indexed": true,
          "internalType": "address",
          "name": "spender",
          "type": "address"
        },
        {
          "indexed": false,
          "internalType": "uint256",
          "name": "value",
          "type": "uint256"
        }
      ],
      "name": "Approval",
      "type": "event"
    },
    {
      "anonymous": false,
      "inputs": [
        {
          "indexed": true,
          "internalType": "address",
          "name": "from",
          "type": "address"
        },
        {
          "indexed": true,
          "internalType": "address",
          "name": "to",
          "type": "address"
        },
        {
          "indexed": false,
          "internalType": "uint256",
          "name": "value",
          "type": "uint256"
        }
      ],
      "name": "Transfer",
      "type": "event"
    },
    {
      "inputs": [
        {
          "internalType": "address",
          "name": "owner",
          "type": "address"
        },
        {
          "internalType": "address",
          "name": "spender",
          "type": "address"
        }
      ],
      "name": "allowance",
      "outputs": [
        {
          "internalType": "uint256",
          "name": "",
          "type": "uint256"
        }
      ],
      "stateMutability": "view",
      "type": "function"
    },
    {
      "inputs": [
        {
          "internalType": "address",
          "name": "spender",
          "type": "address"
        },
        {
          "internalType": "uint256",
          "name": "amount",
          "type": "uint256"
        }
      ],
      "name": "approve",
      "outputs": [
        {
          "internalType": "bool",
          "name": "",
          "type": "bool"
        }
      ],
      "stateMutability": "nonpayable",
      "type": "function"
    },
    {
      "inputs": [
        {
          "internalType": "address",
          "name": "account",
          "type": "address"
        }
      ],
      "name": "balanceOf",
      "outputs": [
        {
          "internalType": "uint256",
          "name": "",
          "type": "uint256"
        }
      ],
      "stateMutability": "view",
      "type": "function"
    },
    {
      "inputs": [],
      "name": "decimals",
      "outputs": [
        {
          "internalType": "uint8",
          "name": "",
          "type": "uint8"
        }
      ],
      "stateMutability": "view",
      "type": "function"
    },
    {
      "inputs": [
        {
          "internalType": "address",
          "name": "spender",
          "type": "address"
        },
        {
          "internalType": "uint256",
          "name": "subtractedValue",
          "type": "uint256"
        }
      ],
      "name": "decreaseAllowance",
      "outputs": [
        {
          "internalType": "bool",
          "name": "",
          "type": "bool"
        }
      ],
      "stateMutability": "nonpayable",
      "type": "function"
    },
    {
      "inputs": [
        {
          "internalType": "address",
          "name": "spender",
          "type": "address"
        },
        {
          "internalType": "uint256",
          "name": "addedValue",
          "type": "uint256"
        }
      ],
      "name": "increaseAllowance",
      "outputs": [
        {
          "internalType": "bool",
          "name": "",
          "type": "bool"
        }
      ],
      "stateMutability": "nonpayable",
      "type": "function"
    },
    {
      "inputs": [],
      "name": "name",
      "outputs": [
        {
          "internalType": "string",
          "name": "",
          "type": "string"
        }
      ],
      "stateMutability": "view",
      "type": "function"
    },
    {
      "inputs": [
        {
          "internalType": "address",
          "name": "",
          "type": "address"
        }
      ],
      "name": "presaleOwedPerPeriod",
      "outputs": [
        {
          "internalType": "uint256",
          "name": "",
          "type": "uint256"
        }
      ],
      "stateMutability": "view",
      "type": "function"
    },
    {
      "inputs": [],
      "name": "symbol",
      "outputs": [
        {
          "internalType": "string",
          "name": "",
          "type": "string"
        }
      ],
      "stateMutability": "view",
      "type": "function"
    },
    {
      "inputs": [],
      "name": "totalSupply",
      "outputs": [
        {
          "internalType": "uint256",
          "name": "",
          "type": "uint256"
        }
      ],
      "stateMutability": "view",
      "type": "function"
    },
    {
      "inputs": [
        {
          "internalType": "address",
          "name": "recipient",
          "type": "address"
        },
        {
          "internalType": "uint256",
          "name": "amount",
          "type": "uint256"
        }
      ],
      "name": "transfer",
      "outputs": [
        {
          "internalType": "bool",
          "name": "",
          "type": "bool"
        }
      ],
      "stateMutability": "nonpayable",
      "type": "function"
    },
    {
      "inputs": [
        {
          "internalType": "address",
          "name": "sender",
          "type": "address"
        },
        {
          "internalType": "address",
          "name": "recipient",
          "type": "address"
        },
        {
          "internalType": "uint256",
          "name": "amount",
          "type": "uint256"
        }
      ],
      "name": "transferFrom",
      "outputs": [
        {
          "internalType": "bool",
          "name": "",
          "type": "bool"
        }
      ],
      "stateMutability": "nonpayable",
      "type": "function"
    },
    {
      "inputs": [],
      "name": "sendPresaleTokens",
      "outputs": [],
      "stateMutability": "nonpayable",
      "type": "function"
    }
  ],
  "bytecode": "0x608060405260006006553480156200001657600080fd5b50604051620025c4380380620025c483398181016040528101906200003c919062000703565b8383816003908051906020019062000056929190620003e0565b5080600490805190602001906200006f929190620003e0565b5050508051825114620000b9576040517f08c379a0000000000000000000000000000000000000000000000000000000008152600401620000b09062000832565b60405180910390fd5b60008260079080519060200190620000d392919062000471565b5060005b83518110156200021c57600a8382815181106200011d577f4e487b7100000000000000000000000000000000000000000000000000000000600052603260045260246000fd5b6020026020010151620001319190620009be565b600860008684815181106200016f577f4e487b7100000000000000000000000000000000000000000000000000000000600052603260045260246000fd5b602002602001015173ffffffffffffffffffffffffffffffffffffffff1673ffffffffffffffffffffffffffffffffffffffff16815260200190815260200160002081905550828181518110620001ef577f4e487b7100000000000000000000000000000000000000000000000000000000600052603260045260246000fd5b60200260200101518262000204919062000961565b91508080620002139062000ad6565b915050620000d7565b5062093a80426200022e919062000961565b60058190555062000252336b204fce5e3e250261100000006200025d60201b60201c565b505050505062000c77565b600073ffffffffffffffffffffffffffffffffffffffff168273ffffffffffffffffffffffffffffffffffffffff161415620002d0576040517f08c379a0000000000000000000000000000000000000000000000000000000008152600401620002c79062000854565b60405180910390fd5b620002e460008383620003d660201b60201c565b8060026000828254620002f8919062000961565b92505081905550806000808473ffffffffffffffffffffffffffffffffffffffff1673ffffffffffffffffffffffffffffffffffffffff16815260200190815260200160002060008282546200034f919062000961565b925050819055508173ffffffffffffffffffffffffffffffffffffffff16600073ffffffffffffffffffffffffffffffffffffffff167fddf252ad1be2c89b69c2b068fc378daa952ba7f163c4a11628f55a4df523b3ef83604051620003b6919062000876565b60405180910390a3620003d260008383620003db60201b60201c565b5050565b505050565b505050565b828054620003ee9062000a6a565b90600052602060002090601f0160209004810192826200041257600085556200045e565b82601f106200042d57805160ff19168380011785556200045e565b828001600101855582156200045e579182015b828111156200045d57825182559160200191906001019062000440565b5b5090506200046d919062000500565b5090565b828054828255906000526020600020908101928215620004ed579160200282015b82811115620004ec5782518260006101000a81548173ffffffffffffffffffffffffffffffffffffffff021916908373ffffffffffffffffffffffffffffffffffffffff1602179055509160200191906001019062000492565b5b509050620004fc919062000500565b5090565b5b808211156200051b57600081600090555060010162000501565b5090565b6000620005366200053084620008bc565b62000893565b905080838252602082019050828560208602820111156200055657600080fd5b60005b858110156200058a57816200056f88826200064e565b84526020840193506020830192505060018101905062000559565b5050509392505050565b6000620005ab620005a584620008eb565b62000893565b90508083825260208201905082856020860282011115620005cb57600080fd5b60005b85811015620005ff5781620005e48882620006ec565b845260208401935060208301925050600181019050620005ce565b5050509392505050565b6000620006206200061a846200091a565b62000893565b9050828152602081018484840111156200063957600080fd5b6200064684828562000a34565b509392505050565b6000815190506200065f8162000c43565b92915050565b600082601f8301126200067757600080fd5b8151620006898482602086016200051f565b91505092915050565b600082601f830112620006a457600080fd5b8151620006b684826020860162000594565b91505092915050565b600082601f830112620006d157600080fd5b8151620006e384826020860162000609565b91505092915050565b600081519050620006fd8162000c5d565b92915050565b600080600080608085870312156200071a57600080fd5b600085015167ffffffffffffffff8111156200073557600080fd5b6200074387828801620006bf565b945050602085015167ffffffffffffffff8111156200076157600080fd5b6200076f87828801620006bf565b935050604085015167ffffffffffffffff8111156200078d57600080fd5b6200079b8782880162000665565b925050606085015167ffffffffffffffff811115620007b957600080fd5b620007c78782880162000692565b91505092959194509250565b6000620007e2601a8362000950565b9150620007ef8262000bf1565b602082019050919050565b600062000809601f8362000950565b9150620008168262000c1a565b602082019050919050565b6200082c8162000a2a565b82525050565b600060208201905081810360008301526200084d81620007d3565b9050919050565b600060208201905081810360008301526200086f81620007fa565b9050919050565b60006020820190506200088d600083018462000821565b92915050565b60006200089f620008b2565b9050620008ad828262000aa0565b919050565b6000604051905090565b600067ffffffffffffffff821115620008da57620008d962000bb1565b5b602082029050602081019050919050565b600067ffffffffffffffff82111562000909576200090862000bb1565b5b602082029050602081019050919050565b600067ffffffffffffffff82111562000938576200093762000bb1565b5b620009438262000be0565b9050602081019050919050565b600082825260208201905092915050565b60006200096e8262000a2a565b91506200097b8362000a2a565b9250827fffffffffffffffffffffffffffffffffffffffffffffffffffffffffffffffff03821115620009b357620009b262000b24565b5b828201905092915050565b6000620009cb8262000a2a565b9150620009d88362000a2a565b925082620009eb57620009ea62000b53565b5b828204905092915050565b600062000a038262000a0a565b9050919050565b600073ffffffffffffffffffffffffffffffffffffffff82169050919050565b6000819050919050565b60005b8381101562000a5457808201518184015260208101905062000a37565b8381111562000a64576000848401525b50505050565b6000600282049050600182168062000a8357607f821691505b6020821081141562000a9a5762000a9962000b82565b5b50919050565b62000aab8262000be0565b810181811067ffffffffffffffff8211171562000acd5762000acc62000bb1565b5b80604052505050565b600062000ae38262000a2a565b91507fffffffffffffffffffffffffffffffffffffffffffffffffffffffffffffffff82141562000b195762000b1862000b24565b5b600182019050919050565b7f4e487b7100000000000000000000000000000000000000000000000000000000600052601160045260246000fd5b7f4e487b7100000000000000000000000000000000000000000000000000000000600052601260045260246000fd5b7f4e487b7100000000000000000000000000000000000000000000000000000000600052602260045260246000fd5b7f4e487b7100000000000000000000000000000000000000000000000000000000600052604160045260246000fd5b6000601f19601f8301169050919050565b7f546865206172726179732073697a65206d757374206d61746368000000000000600082015250565b7f45524332303a206d696e7420746f20746865207a65726f206164647265737300600082015250565b62000c4e81620009f6565b811462000c5a57600080fd5b50565b62000c688162000a2a565b811462000c7457600080fd5b50565b61193d8062000c876000396000f3fe608060405234801561001057600080fd5b50600436106100cf5760003560e01c8063400a4deb1161008c57806395d89b411161006657806395d89b4114610228578063a457c2d714610246578063a9059cbb14610276578063dd62ed3e146102a6576100cf565b8063400a4deb146101be5780634b3362ae146101c857806370a08231146101f8576100cf565b806306fdde03146100d4578063095ea7b3146100f257806318160ddd1461012257806323b872dd14610140578063313ce56714610170578063395093511461018e575b600080fd5b6100dc6102d6565b6040516100e9919061126d565b60405180910390f35b61010c60048036038101906101079190611052565b610368565b6040516101199190611252565b60405180910390f35b61012a610386565b60405161013791906113cf565b60405180910390f35b61015a60048036038101906101559190611003565b610390565b6040516101679190611252565b60405180910390f35b610178610488565b60405161018591906113ea565b60405180910390f35b6101a860048036038101906101a39190611052565b610491565b6040516101b59190611252565b60405180910390f35b6101c661053d565b005b6101e260048036038101906101dd9190610f9e565b610734565b6040516101ef91906113cf565b60405180910390f35b610212600480360381019061020d9190610f9e565b61074c565b60405161021f91906113cf565b60405180910390f35b610230610794565b60405161023d919061126d565b60405180910390f35b610260600480360381019061025b9190611052565b610826565b60405161026d9190611252565b60405180910390f35b610290600480360381019061028b9190611052565b610911565b60405161029d9190611252565b60405180910390f35b6102c060048036038101906102bb9190610fc7565b61092f565b6040516102cd91906113cf565b60405180910390f35b6060600380546102e5906114ff565b80601f0160208091040260200160405190810160405280929190818152602001828054610311906114ff565b801561035e5780601f106103335761010080835404028352916020019161035e565b820191906000526020600020905b81548152906001019060200180831161034157829003601f168201915b5050505050905090565b600061037c6103756109b6565b84846109be565b6001905092915050565b6000600254905090565b600061039d848484610b89565b6000600160008673ffffffffffffffffffffffffffffffffffffffff1673ffffffffffffffffffffffffffffffffffffffff16815260200190815260200160002060006103e86109b6565b73ffffffffffffffffffffffffffffffffffffffff1673ffffffffffffffffffffffffffffffffffffffff16815260200190815260200160002054905082811015610468576040517f08c379a000000000000000000000000000000000000000000000000000000000815260040161045f9061132f565b60405180910390fd5b61047c856104746109b6565b8584036109be565b60019150509392505050565b60006012905090565b600061053361049e6109b6565b8484600160006104ac6109b6565b73ffffffffffffffffffffffffffffffffffffffff1673ffffffffffffffffffffffffffffffffffffffff16815260200190815260200160002060008873ffffffffffffffffffffffffffffffffffffffff1673ffffffffffffffffffffffffffffffffffffffff1681526020019081526020016000205461052e9190611421565b6109be565b6001905092915050565b426005541115610582576040517f08c379a00000000000000000000000000000000000000000000000000000000081526004016105799061130f565b60405180910390fd5b600a600654106105c7576040517f08c379a00000000000000000000000000000000000000000000000000000000081526004016105be906112ef565b60405180910390fd5b62093a80600560008282546105dc9190611421565b925050819055506001600660008282546105f69190611421565b9250508190555060005b6007805490508110156107315761071e6007828154811061064a577f4e487b7100000000000000000000000000000000000000000000000000000000600052603260045260246000fd5b9060005260206000200160009054906101000a900473ffffffffffffffffffffffffffffffffffffffff1660086000600785815481106106b3577f4e487b7100000000000000000000000000000000000000000000000000000000600052603260045260246000fd5b9060005260206000200160009054906101000a900473ffffffffffffffffffffffffffffffffffffffff1673ffffffffffffffffffffffffffffffffffffffff1673ffffffffffffffffffffffffffffffffffffffff16815260200190815260200160002054610e0a565b808061072990611531565b915050610600565b50565b60086020528060005260406000206000915090505481565b60008060008373ffffffffffffffffffffffffffffffffffffffff1673ffffffffffffffffffffffffffffffffffffffff168152602001908152602001600020549050919050565b6060600480546107a3906114ff565b80601f01602080910402602001604051908101604052809291908181526020018280546107cf906114ff565b801561081c5780601f106107f15761010080835404028352916020019161081c565b820191906000526020600020905b8154815290600101906020018083116107ff57829003601f168201915b5050505050905090565b600080600160006108356109b6565b73ffffffffffffffffffffffffffffffffffffffff1673ffffffffffffffffffffffffffffffffffffffff16815260200190815260200160002060008573ffffffffffffffffffffffffffffffffffffffff1673ffffffffffffffffffffffffffffffffffffffff168152602001908152602001600020549050828110156108f2576040517f08c379a00000000000000000000000000000000000000000000000000000000081526004016108e99061138f565b60405180910390fd5b6109066108fd6109b6565b858584036109be565b600191505092915050565b600061092561091e6109b6565b8484610b89565b6001905092915050565b6000600160008473ffffffffffffffffffffffffffffffffffffffff1673ffffffffffffffffffffffffffffffffffffffff16815260200190815260200160002060008373ffffffffffffffffffffffffffffffffffffffff1673ffffffffffffffffffffffffffffffffffffffff16815260200190815260200160002054905092915050565b600033905090565b600073ffffffffffffffffffffffffffffffffffffffff168373ffffffffffffffffffffffffffffffffffffffff161415610a2e576040517f08c379a0000000000000000000000000000000000000000000000000000000008152600401610a259061136f565b60405180910390fd5b600073ffffffffffffffffffffffffffffffffffffffff168273ffffffffffffffffffffffffffffffffffffffff161415610a9e576040517f08c379a0000000000000000000000000000000000000000000000000000000008152600401610a95906112af565b60405180910390fd5b80600160008573ffffffffffffffffffffffffffffffffffffffff1673ffffffffffffffffffffffffffffffffffffffff16815260200190815260200160002060008473ffffffffffffffffffffffffffffffffffffffff1673ffffffffffffffffffffffffffffffffffffffff168152602001908152602001600020819055508173ffffffffffffffffffffffffffffffffffffffff168373ffffffffffffffffffffffffffffffffffffffff167f8c5be1e5ebec7d5bd14f71427d1e84f3dd0314c0f7b2291e5b200ac8c7c3b92583604051610b7c91906113cf565b60405180910390a3505050565b600073ffffffffffffffffffffffffffffffffffffffff168373ffffffffffffffffffffffffffffffffffffffff161415610bf9576040517f08c379a0000000000000000000000000000000000000000000000000000000008152600401610bf09061134f565b60405180910390fd5b600073ffffffffffffffffffffffffffffffffffffffff168273ffffffffffffffffffffffffffffffffffffffff161415610c69576040517f08c379a0000000000000000000000000000000000000000000000000000000008152600401610c609061128f565b60405180910390fd5b610c74838383610f6a565b60008060008573ffffffffffffffffffffffffffffffffffffffff1673ffffffffffffffffffffffffffffffffffffffff16815260200190815260200160002054905081811015610cfa576040517f08c379a0000000000000000000000000000000000000000000000000000000008152600401610cf1906112cf565b60405180910390fd5b8181036000808673ffffffffffffffffffffffffffffffffffffffff1673ffffffffffffffffffffffffffffffffffffffff16815260200190815260200160002081905550816000808573ffffffffffffffffffffffffffffffffffffffff1673ffffffffffffffffffffffffffffffffffffffff1681526020019081526020016000206000828254610d8d9190611421565b925050819055508273ffffffffffffffffffffffffffffffffffffffff168473ffffffffffffffffffffffffffffffffffffffff167fddf252ad1be2c89b69c2b068fc378daa952ba7f163c4a11628f55a4df523b3ef84604051610df191906113cf565b60405180910390a3610e04848484610f6f565b50505050565b600073ffffffffffffffffffffffffffffffffffffffff168273ffffffffffffffffffffffffffffffffffffffff161415610e7a576040517f08c379a0000000000000000000000000000000000000000000000000000000008152600401610e71906113af565b60405180910390fd5b610e8660008383610f6a565b8060026000828254610e989190611421565b92505081905550806000808473ffffffffffffffffffffffffffffffffffffffff1673ffffffffffffffffffffffffffffffffffffffff1681526020019081526020016000206000828254610eed9190611421565b925050819055508173ffffffffffffffffffffffffffffffffffffffff16600073ffffffffffffffffffffffffffffffffffffffff167fddf252ad1be2c89b69c2b068fc378daa952ba7f163c4a11628f55a4df523b3ef83604051610f5291906113cf565b60405180910390a3610f6660008383610f6f565b5050565b505050565b505050565b600081359050610f83816118d9565b92915050565b600081359050610f98816118f0565b92915050565b600060208284031215610fb057600080fd5b6000610fbe84828501610f74565b91505092915050565b60008060408385031215610fda57600080fd5b6000610fe885828601610f74565b9250506020610ff985828601610f74565b9150509250929050565b60008060006060848603121561101857600080fd5b600061102686828701610f74565b935050602061103786828701610f74565b925050604061104886828701610f89565b9150509250925092565b6000806040838503121561106557600080fd5b600061107385828601610f74565b925050602061108485828601610f89565b9150509250929050565b61109781611489565b82525050565b60006110a882611405565b6110b28185611410565b93506110c28185602086016114cc565b6110cb816115d8565b840191505092915050565b60006110e3602383611410565b91506110ee826115e9565b604082019050919050565b6000611106602283611410565b915061111182611638565b604082019050919050565b6000611129602683611410565b915061113482611687565b604082019050919050565b600061114c602483611410565b9150611157826116d6565b604082019050919050565b600061116f602d83611410565b915061117a82611725565b604082019050919050565b6000611192602883611410565b915061119d82611774565b604082019050919050565b60006111b5602583611410565b91506111c0826117c3565b604082019050919050565b60006111d8602483611410565b91506111e382611812565b604082019050919050565b60006111fb602583611410565b915061120682611861565b604082019050919050565b600061121e601f83611410565b9150611229826118b0565b602082019050919050565b61123d816114b5565b82525050565b61124c816114bf565b82525050565b6000602082019050611267600083018461108e565b92915050565b60006020820190508181036000830152611287818461109d565b905092915050565b600060208201905081810360008301526112a8816110d6565b9050919050565b600060208201905081810360008301526112c8816110f9565b9050919050565b600060208201905081810360008301526112e88161111c565b9050919050565b600060208201905081810360008301526113088161113f565b9050919050565b6000602082019050818103600083015261132881611162565b9050919050565b6000602082019050818103600083015261134881611185565b9050919050565b60006020820190508181036000830152611368816111a8565b9050919050565b60006020820190508181036000830152611388816111cb565b9050919050565b600060208201905081810360008301526113a8816111ee565b9050919050565b600060208201905081810360008301526113c881611211565b9050919050565b60006020820190506113e46000830184611234565b92915050565b60006020820190506113ff6000830184611243565b92915050565b600081519050919050565b600082825260208201905092915050565b600061142c826114b5565b9150611437836114b5565b9250827fffffffffffffffffffffffffffffffffffffffffffffffffffffffffffffffff0382111561146c5761146b61157a565b5b828201905092915050565b600061148282611495565b9050919050565b60008115159050919050565b600073ffffffffffffffffffffffffffffffffffffffff82169050919050565b6000819050919050565b600060ff82169050919050565b60005b838110156114ea5780820151818401526020810190506114cf565b838111156114f9576000848401525b50505050565b6000600282049050600182168061151757607f821691505b6020821081141561152b5761152a6115a9565b5b50919050565b600061153c826114b5565b91507fffffffffffffffffffffffffffffffffffffffffffffffffffffffffffffffff82141561156f5761156e61157a565b5b600182019050919050565b7f4e487b7100000000000000000000000000000000000000000000000000000000600052601160045260246000fd5b7f4e487b7100000000000000000000000000000000000000000000000000000000600052602260045260246000fd5b6000601f19601f8301169050919050565b7f45524332303a207472616e7366657220746f20746865207a65726f206164647260008201527f6573730000000000000000000000000000000000000000000000000000000000602082015250565b7f45524332303a20617070726f766520746f20746865207a65726f20616464726560008201527f7373000000000000000000000000000000000000000000000000000000000000602082015250565b7f45524332303a207472616e7366657220616d6f756e742065786365656473206260008201527f616c616e63650000000000000000000000000000000000000000000000000000602082015250565b7f43616e206f6e6c792073656e642070726573616c652066756e6473203130207460008201527f696d657300000000000000000000000000000000000000000000000000000000602082015250565b7f43616e206f6e6c792077697468647261776c203130252065616368207765656b60008201527f2073696e6365206c61756e636800000000000000000000000000000000000000602082015250565b7f45524332303a207472616e7366657220616d6f756e742065786365656473206160008201527f6c6c6f77616e6365000000000000000000000000000000000000000000000000602082015250565b7f45524332303a207472616e736665722066726f6d20746865207a65726f20616460008201527f6472657373000000000000000000000000000000000000000000000000000000602082015250565b7f45524332303a20617070726f76652066726f6d20746865207a65726f2061646460008201527f7265737300000000000000000000000000000000000000000000000000000000602082015250565b7f45524332303a2064656372656173656420616c6c6f77616e63652062656c6f7760008201527f207a65726f000000000000000000000000000000000000000000000000000000602082015250565b7f45524332303a206d696e7420746f20746865207a65726f206164647265737300600082015250565b6118e281611477565b81146118ed57600080fd5b50565b6118f9816114b5565b811461190457600080fd5b5056fea2646970667358221220cb03f7c624e4a3a67376183655018766bcf1592068e89417b5b1db76b9c82bff64736f6c63430008040033",
  "immutableReferences": {},
  "source": "//SPDX-License-Identifier: None\npragma solidity ^0.8.0;\n\nimport \"@openzeppelin/contracts/token/ERC20/ERC20.sol\";\n\ncontract PresaleToken is ERC20{\n\n    uint lockEnd;\n    uint presaleCount = 0;\n    address[] investors;\n    mapping (address => uint) public presaleOwedPerPeriod;\n    uint private constant ONE_WEEK = 604800;\n\n    constructor(string memory _name, string memory _symbol, address[] memory _investors, uint[] memory _amounts)ERC20(_name, _symbol){\n        require(_investors.length == _amounts.length, \"The arrays size must match\");\n        uint subFromTotal = 0;\n        investors = _investors;\n        for(uint i = 0; i < _investors.length; i++){\n            presaleOwedPerPeriod[_investors[i]] = _amounts[i]/10;\n            subFromTotal += _amounts[i];\n        }\n        lockEnd = block.timestamp + ONE_WEEK;\n        _mint(msg.sender, 10000000000 ether);\n    }\n    \n    /// @dev function to send out 10% of presale funds to investors each week (max of 10 times)\n    function sendPresaleTokens()external{\n        require(lockEnd <= block.timestamp, \"Can only withdrawl 10% each week since launch\");\n        require(presaleCount < 10, \"Can only send presale funds 10 times\");\n        lockEnd += ONE_WEEK;\n        presaleCount += 1;\n        for(uint i = 0; i < investors.length; i++){\n            _mint(investors[i],presaleOwedPerPeriod[investors[i]]);\n        }\n    }\n}",
  "sourcePath": "/home/Shelter/contracts/Presale.sol",
  "compiler": {
    "name": "solc",
    "version": "0.8.4+commit.c7e474f2.Emscripten.clang"
  },
  "schemaVersion": "3.4.1",
  "updatedAt": "2021-07-19T19:21:53.035Z",
  "devdoc": {
    "kind": "dev",
    "methods": {
      "allowance(address,address)": {
        "details": "See {IERC20-allowance}."
      },
      "approve(address,uint256)": {
        "details": "See {IERC20-approve}. Requirements: - `spender` cannot be the zero address."
      },
      "balanceOf(address)": {
        "details": "See {IERC20-balanceOf}."
      },
      "decimals()": {
        "details": "Returns the number of decimals used to get its user representation. For example, if `decimals` equals `2`, a balance of `505` tokens should be displayed to a user as `5,05` (`505 / 10 ** 2`). Tokens usually opt for a value of 18, imitating the relationship between Ether and Wei. This is the value {ERC20} uses, unless this function is overridden; NOTE: This information is only used for _display_ purposes: it in no way affects any of the arithmetic of the contract, including {IERC20-balanceOf} and {IERC20-transfer}."
      },
      "decreaseAllowance(address,uint256)": {
        "details": "Atomically decreases the allowance granted to `spender` by the caller. This is an alternative to {approve} that can be used as a mitigation for problems described in {IERC20-approve}. Emits an {Approval} event indicating the updated allowance. Requirements: - `spender` cannot be the zero address. - `spender` must have allowance for the caller of at least `subtractedValue`."
      },
      "increaseAllowance(address,uint256)": {
        "details": "Atomically increases the allowance granted to `spender` by the caller. This is an alternative to {approve} that can be used as a mitigation for problems described in {IERC20-approve}. Emits an {Approval} event indicating the updated allowance. Requirements: - `spender` cannot be the zero address."
      },
      "name()": {
        "details": "Returns the name of the token."
      },
      "sendPresaleTokens()": {
        "details": "function to send out 10% of presale funds to investors each week (max of 10 times)"
      },
      "symbol()": {
        "details": "Returns the symbol of the token, usually a shorter version of the name."
      },
      "totalSupply()": {
        "details": "See {IERC20-totalSupply}."
      },
      "transfer(address,uint256)": {
        "details": "See {IERC20-transfer}. Requirements: - `recipient` cannot be the zero address. - the caller must have a balance of at least `amount`."
      },
      "transferFrom(address,address,uint256)": {
        "details": "See {IERC20-transferFrom}. Emits an {Approval} event indicating the updated allowance. This is not required by the EIP. See the note at the beginning of {ERC20}. Requirements: - `sender` and `recipient` cannot be the zero address. - `sender` must have a balance of at least `amount`. - the caller must have allowance for ``sender``'s tokens of at least `amount`."
      }
    },
    "version": 1
  },
  "userdoc": {
    "kind": "user",
    "methods": {},
    "version": 1
  }
}