{
  "contractName": "Shelter",
  "abi": [
    {
      "inputs": [
        {
          "internalType": "address[]",
          "name": "_investors",
          "type": "address[]"
        },
        {
          "internalType": "uint256[]",
          "name": "_amounts",
          "type": "uint256[]"
        }
      ],
      "stateMutability": "nonpayable",
      "type": "constructor"
    },
    {
      "anonymous": false,
      "inputs": [
        {
          "indexed": true,
          "internalType": "address",
          "name": "owner",
          "type": "address"
        },
        {
          "indexed": true,
          "internalType": "address",
          "name": "spender",
          "type": "address"
        },
        {
          "indexed": false,
          "internalType": "uint256",
          "name": "value",
          "type": "uint256"
        }
      ],
      "name": "Approval",
      "type": "event"
    },
    {
      "anonymous": false,
      "inputs": [
        {
          "indexed": true,
          "internalType": "address",
          "name": "previousOwner",
          "type": "address"
        },
        {
          "indexed": true,
          "internalType": "address",
          "name": "newOwner",
          "type": "address"
        }
      ],
      "name": "OwnershipTransferred",
      "type": "event"
    },
    {
      "anonymous": false,
      "inputs": [
        {
          "indexed": true,
          "internalType": "address",
          "name": "from",
          "type": "address"
        },
        {
          "indexed": true,
          "internalType": "address",
          "name": "to",
          "type": "address"
        },
        {
          "indexed": false,
          "internalType": "uint256",
          "name": "value",
          "type": "uint256"
        }
      ],
      "name": "Transfer",
      "type": "event"
    },
    {
      "inputs": [],
      "name": "CHARITY_TAX",
      "outputs": [
        {
          "internalType": "uint256",
          "name": "",
          "type": "uint256"
        }
      ],
      "stateMutability": "view",
      "type": "function"
    },
    {
      "inputs": [],
      "name": "LIQUIDITY_FEE",
      "outputs": [
        {
          "internalType": "uint256",
          "name": "",
          "type": "uint256"
        }
      ],
      "stateMutability": "view",
      "type": "function"
    },
    {
      "inputs": [],
      "name": "ONE_HUNDRED_PERCENT",
      "outputs": [
        {
          "internalType": "uint256",
          "name": "",
          "type": "uint256"
        }
      ],
      "stateMutability": "view",
      "type": "function"
    },
    {
      "inputs": [
        {
          "internalType": "address",
          "name": "owner",
          "type": "address"
        },
        {
          "internalType": "address",
          "name": "spender",
          "type": "address"
        }
      ],
      "name": "allowance",
      "outputs": [
        {
          "internalType": "uint256",
          "name": "",
          "type": "uint256"
        }
      ],
      "stateMutability": "view",
      "type": "function"
    },
    {
      "inputs": [
        {
          "internalType": "address",
          "name": "spender",
          "type": "address"
        },
        {
          "internalType": "uint256",
          "name": "amount",
          "type": "uint256"
        }
      ],
      "name": "approve",
      "outputs": [
        {
          "internalType": "bool",
          "name": "",
          "type": "bool"
        }
      ],
      "stateMutability": "nonpayable",
      "type": "function"
    },
    {
      "inputs": [
        {
          "internalType": "address",
          "name": "account",
          "type": "address"
        }
      ],
      "name": "balanceOf",
      "outputs": [
        {
          "internalType": "uint256",
          "name": "",
          "type": "uint256"
        }
      ],
      "stateMutability": "view",
      "type": "function"
    },
    {
      "inputs": [],
      "name": "charity",
      "outputs": [
        {
          "internalType": "address",
          "name": "",
          "type": "address"
        }
      ],
      "stateMutability": "view",
      "type": "function"
    },
    {
      "inputs": [],
      "name": "decimals",
      "outputs": [
        {
          "internalType": "uint8",
          "name": "",
          "type": "uint8"
        }
      ],
      "stateMutability": "view",
      "type": "function"
    },
    {
      "inputs": [
        {
          "internalType": "address",
          "name": "spender",
          "type": "address"
        },
        {
          "internalType": "uint256",
          "name": "subtractedValue",
          "type": "uint256"
        }
      ],
      "name": "decreaseAllowance",
      "outputs": [
        {
          "internalType": "bool",
          "name": "",
          "type": "bool"
        }
      ],
      "stateMutability": "nonpayable",
      "type": "function"
    },
    {
      "inputs": [
        {
          "internalType": "address",
          "name": "spender",
          "type": "address"
        },
        {
          "internalType": "uint256",
          "name": "addedValue",
          "type": "uint256"
        }
      ],
      "name": "increaseAllowance",
      "outputs": [
        {
          "internalType": "bool",
          "name": "",
          "type": "bool"
        }
      ],
      "stateMutability": "nonpayable",
      "type": "function"
    },
    {
      "inputs": [],
      "name": "name",
      "outputs": [
        {
          "internalType": "string",
          "name": "",
          "type": "string"
        }
      ],
      "stateMutability": "view",
      "type": "function"
    },
    {
      "inputs": [],
      "name": "owner",
      "outputs": [
        {
          "internalType": "address",
          "name": "",
          "type": "address"
        }
      ],
      "stateMutability": "view",
      "type": "function"
    },
    {
      "inputs": [
        {
          "internalType": "address",
          "name": "",
          "type": "address"
        }
      ],
      "name": "presaleOwedPerPeriod",
      "outputs": [
        {
          "internalType": "uint256",
          "name": "",
          "type": "uint256"
        }
      ],
      "stateMutability": "view",
      "type": "function"
    },
    {
      "inputs": [],
      "name": "renounceOwnership",
      "outputs": [],
      "stateMutability": "nonpayable",
      "type": "function"
    },
    {
      "inputs": [],
      "name": "sendPresaleTokens",
      "outputs": [],
      "stateMutability": "nonpayable",
      "type": "function"
    },
    {
      "inputs": [],
      "name": "swapAndLiquifyEnabled",
      "outputs": [
        {
          "internalType": "bool",
          "name": "",
          "type": "bool"
        }
      ],
      "stateMutability": "view",
      "type": "function"
    },
    {
      "inputs": [],
      "name": "symbol",
      "outputs": [
        {
          "internalType": "string",
          "name": "",
          "type": "string"
        }
      ],
      "stateMutability": "view",
      "type": "function"
    },
    {
      "inputs": [],
      "name": "totalSupply",
      "outputs": [
        {
          "internalType": "uint256",
          "name": "",
          "type": "uint256"
        }
      ],
      "stateMutability": "view",
      "type": "function"
    },
    {
      "inputs": [
        {
          "internalType": "address",
          "name": "recipient",
          "type": "address"
        },
        {
          "internalType": "uint256",
          "name": "amount",
          "type": "uint256"
        }
      ],
      "name": "transfer",
      "outputs": [
        {
          "internalType": "bool",
          "name": "",
          "type": "bool"
        }
      ],
      "stateMutability": "nonpayable",
      "type": "function"
    },
    {
      "inputs": [
        {
          "internalType": "address",
          "name": "sender",
          "type": "address"
        },
        {
          "internalType": "address",
          "name": "recipient",
          "type": "address"
        },
        {
          "internalType": "uint256",
          "name": "amount",
          "type": "uint256"
        }
      ],
      "name": "transferFrom",
      "outputs": [
        {
          "internalType": "bool",
          "name": "",
          "type": "bool"
        }
      ],
      "stateMutability": "nonpayable",
      "type": "function"
    },
    {
      "inputs": [
        {
          "internalType": "address",
          "name": "newOwner",
          "type": "address"
        }
      ],
      "name": "transferOwnership",
      "outputs": [],
      "stateMutability": "nonpayable",
      "type": "function"
    },
    {
      "stateMutability": "payable",
      "type": "receive"
    },
    {
      "inputs": [
        {
          "internalType": "bool",
          "name": "_enabled",
          "type": "bool"
        }
      ],
      "name": "setSwapAndLiquifyEnabled",
      "outputs": [],
      "stateMutability": "nonpayable",
      "type": "function"
    }
  ],
  "bytecode": "0x608060405260006006556000600b60156101000a81548160ff0219169083151502179055503480156200003157600080fd5b5060405162004cd738038062004cd78339818101604052810190620000579190620014dc565b6040518060400160405280600d81526020017f5368656c746f7220546f6b656e000000000000000000000000000000000000008152506040518060400160405280600781526020017f5348454c544f5200000000000000000000000000000000000000000000000000815250838383838160039080519060200190620000df929190620011ff565b508060049080519060200190620000f8929190620011ff565b505050805182511462000142576040517f08c379a0000000000000000000000000000000000000000000000000000000008152600401620001399062001808565b60405180910390fd5b600082600790805190602001906200015c92919062001290565b5060005b8351811015620002a557600a838281518110620001a6577f4e487b7100000000000000000000000000000000000000000000000000000000600052603260045260246000fd5b6020026020010151620001ba919062001a3f565b60086000868481518110620001f8577f4e487b7100000000000000000000000000000000000000000000000000000000600052603260045260246000fd5b602002602001015173ffffffffffffffffffffffffffffffffffffffff1673ffffffffffffffffffffffffffffffffffffffff1681526020019081526020016000208190555082818151811062000278577f4e487b7100000000000000000000000000000000000000000000000000000000600052603260045260246000fd5b6020026020010151826200028d9190620019e2565b915080806200029c9062001bd1565b91505062000160565b5062093a8042620002b79190620019e2565b600581905550620002dc336c01431e0fae6d7217caa00000006200035e60201b60201c565b505050505062000301620002f5620004d760201b60201c565b620004df60201b60201c565b737a250d5630b4cf539739df2c5dacb4c659f2488d600a60006101000a81548173ffffffffffffffffffffffffffffffffffffffff021916908373ffffffffffffffffffffffffffffffffffffffff160217905550505062001eae565b600073ffffffffffffffffffffffffffffffffffffffff168273ffffffffffffffffffffffffffffffffffffffff161415620003d1576040517f08c379a0000000000000000000000000000000000000000000000000000000008152600401620003c8906200186e565b60405180910390fd5b620003e560008383620005a560201b60201c565b8060026000828254620003f99190620019e2565b92505081905550806000808473ffffffffffffffffffffffffffffffffffffffff1673ffffffffffffffffffffffffffffffffffffffff1681526020019081526020016000206000828254620004509190620019e2565b925050819055508173ffffffffffffffffffffffffffffffffffffffff16600073ffffffffffffffffffffffffffffffffffffffff167fddf252ad1be2c89b69c2b068fc378daa952ba7f163c4a11628f55a4df523b3ef83604051620004b7919062001890565b60405180910390a3620004d3600083836200087d60201b60201c565b5050565b600033905090565b6000600960009054906101000a900473ffffffffffffffffffffffffffffffffffffffff16905081600960006101000a81548173ffffffffffffffffffffffffffffffffffffffff021916908373ffffffffffffffffffffffffffffffffffffffff1602179055508173ffffffffffffffffffffffffffffffffffffffff168173ffffffffffffffffffffffffffffffffffffffff167f8be0079c531659141344cd1fd0a4f28419497f9722a3daafe3b4186f6b6457e060405160405180910390a35050565b600073ffffffffffffffffffffffffffffffffffffffff168373ffffffffffffffffffffffffffffffffffffffff1614158015620006105750600073ffffffffffffffffffffffffffffffffffffffff168273ffffffffffffffffffffffffffffffffffffffff1614155b80156200066b5750600a60009054906101000a900473ffffffffffffffffffffffffffffffffffffffff1673ffffffffffffffffffffffffffffffffffffffff168373ffffffffffffffffffffffffffffffffffffffff1614155b8015620006c65750600a60009054906101000a900473ffffffffffffffffffffffffffffffffffffffff1673ffffffffffffffffffffffffffffffffffffffff168273ffffffffffffffffffffffffffffffffffffffff1614155b8015620007215750600b60009054906101000a900473ffffffffffffffffffffffffffffffffffffffff1673ffffffffffffffffffffffffffffffffffffffff168373ffffffffffffffffffffffffffffffffffffffff1614155b80156200077c5750600b60009054906101000a900473ffffffffffffffffffffffffffffffffffffffff1673ffffffffffffffffffffffffffffffffffffffff168273ffffffffffffffffffffffffffffffffffffffff1614155b156200087857620007bb73b5bc62c665c13590188477dfd83f33631c1da0ba620007af836101f46200088260201b60201c565b6200035e60201b60201c565b620007e030620007d48361012c6200088260201b60201c565b6200035e60201b60201c565b6200082583620007f98361012c6200088260201b60201c565b6200080d846101f46200088260201b60201c565b620008199190620019e2565b620008a960201b60201c565b600b60159054906101000a900460ff1680156200084f5750600b60149054906101000a900460ff16155b156200087757620008766200086a3062000a9a60201b60201c565b62000ae260201b60201c565b5b5b505050565b505050565b6000612710828462000895919062001a77565b620008a1919062001a3f565b905092915050565b600073ffffffffffffffffffffffffffffffffffffffff168273ffffffffffffffffffffffffffffffffffffffff1614156200091c576040517f08c379a000000000000000000000000000000000000000000000000000000000815260040162000913906200182a565b60405180910390fd5b6200093082600083620005a560201b60201c565b60008060008473ffffffffffffffffffffffffffffffffffffffff1673ffffffffffffffffffffffffffffffffffffffff16815260200190815260200160002054905081811015620009b9576040517f08c379a0000000000000000000000000000000000000000000000000000000008152600401620009b090620017c4565b60405180910390fd5b8181036000808573ffffffffffffffffffffffffffffffffffffffff1673ffffffffffffffffffffffffffffffffffffffff16815260200190815260200160002081905550816002600082825462000a12919062001ad8565b92505081905550600073ffffffffffffffffffffffffffffffffffffffff168373ffffffffffffffffffffffffffffffffffffffff167fddf252ad1be2c89b69c2b068fc378daa952ba7f163c4a11628f55a4df523b3ef8460405162000a79919062001890565b60405180910390a362000a95836000846200087d60201b60201c565b505050565b60008060008373ffffffffffffffffffffffffffffffffffffffff1673ffffffffffffffffffffffffffffffffffffffff168152602001908152602001600020549050919050565b6001600b60146101000a81548160ff021916908315150217905550600060048262000b0e919062001a3f565b9050600060048362000b21919062001a3f565b9050600081838562000b34919062001ad8565b62000b40919062001ad8565b9050600047905062000b588462000bb060201b60201c565b6000814762000b68919062001ad8565b905062000b7c848262000e8860201b60201c565b62000b8d8362000f9260201b60201c565b50505050506000600b60146101000a81548160ff02191690831515021790555050565b6000600267ffffffffffffffff81111562000bf4577f4e487b7100000000000000000000000000000000000000000000000000000000600052604160045260246000fd5b60405190808252806020026020018201604052801562000c235781602001602082028036833780820191505090505b509050308160008151811062000c62577f4e487b7100000000000000000000000000000000000000000000000000000000600052603260045260246000fd5b602002602001019073ffffffffffffffffffffffffffffffffffffffff16908173ffffffffffffffffffffffffffffffffffffffff1681525050600a60009054906101000a900473ffffffffffffffffffffffffffffffffffffffff1673ffffffffffffffffffffffffffffffffffffffff1663ad5c46486040518163ffffffff1660e01b815260040160206040518083038186803b15801562000d0557600080fd5b505afa15801562000d1a573d6000803e3d6000fd5b505050506040513d601f19601f8201168201806040525081019062000d409190620014b0565b8160018151811062000d7b577f4e487b7100000000000000000000000000000000000000000000000000000000600052603260045260246000fd5b602002602001019073ffffffffffffffffffffffffffffffffffffffff16908173ffffffffffffffffffffffffffffffffffffffff168152505062000dea30600a60009054906101000a900473ffffffffffffffffffffffffffffffffffffffff16846200100260201b60201c565b600a60009054906101000a900473ffffffffffffffffffffffffffffffffffffffff1673ffffffffffffffffffffffffffffffffffffffff1663791ac9478360008430426040518663ffffffff1660e01b815260040162000e50959493929190620018ad565b600060405180830381600087803b15801562000e6b57600080fd5b505af115801562000e80573d6000803e3d6000fd5b505050505050565b62000ebd30600a60009054906101000a900473ffffffffffffffffffffffffffffffffffffffff16846200100260201b60201c565b600a60009054906101000a900473ffffffffffffffffffffffffffffffffffffffff1673ffffffffffffffffffffffffffffffffffffffff1663f305d71982308560008062000f11620011d560201b60201c565b426040518863ffffffff1660e01b815260040162000f359695949392919062001757565b6060604051808303818588803b15801562000f4f57600080fd5b505af115801562000f64573d6000803e3d6000fd5b50505050506040513d601f19601f8201168201806040525081019062000f8b91906200154f565b5050505050565b62000fa38162000bb060201b60201c565b73b5bc62c665c13590188477dfd83f33631c1da0ba73ffffffffffffffffffffffffffffffffffffffff166108fc479081150290604051600060405180830381858888f1935050505015801562000ffe573d6000803e3d6000fd5b5050565b600073ffffffffffffffffffffffffffffffffffffffff168373ffffffffffffffffffffffffffffffffffffffff16141562001075576040517f08c379a00000000000000000000000000000000000000000000000000000000081526004016200106c906200184c565b60405180910390fd5b600073ffffffffffffffffffffffffffffffffffffffff168273ffffffffffffffffffffffffffffffffffffffff161415620010e8576040517f08c379a0000000000000000000000000000000000000000000000000000000008152600401620010df90620017e6565b60405180910390fd5b80600160008573ffffffffffffffffffffffffffffffffffffffff1673ffffffffffffffffffffffffffffffffffffffff16815260200190815260200160002060008473ffffffffffffffffffffffffffffffffffffffff1673ffffffffffffffffffffffffffffffffffffffff168152602001908152602001600020819055508173ffffffffffffffffffffffffffffffffffffffff168373ffffffffffffffffffffffffffffffffffffffff167f8c5be1e5ebec7d5bd14f71427d1e84f3dd0314c0f7b2291e5b200ac8c7c3b92583604051620011c8919062001890565b60405180910390a3505050565b6000600960009054906101000a900473ffffffffffffffffffffffffffffffffffffffff16905090565b8280546200120d9062001b65565b90600052602060002090601f0160209004810192826200123157600085556200127d565b82601f106200124c57805160ff19168380011785556200127d565b828001600101855582156200127d579182015b828111156200127c5782518255916020019190600101906200125f565b5b5090506200128c91906200131f565b5090565b8280548282559060005260206000209081019282156200130c579160200282015b828111156200130b5782518260006101000a81548173ffffffffffffffffffffffffffffffffffffffff021916908373ffffffffffffffffffffffffffffffffffffffff16021790555091602001919060010190620012b1565b5b5090506200131b91906200131f565b5090565b5b808211156200133a57600081600090555060010162001320565b5090565b6000620013556200134f846200193a565b62001911565b905080838252602082019050828560208602820111156200137557600080fd5b60005b85811015620013a957816200138e888262001428565b84526020840193506020830192505060018101905062001378565b5050509392505050565b6000620013ca620013c48462001969565b62001911565b90508083825260208201905082856020860282011115620013ea57600080fd5b60005b858110156200141e578162001403888262001499565b845260208401935060208301925050600181019050620013ed565b5050509392505050565b600081519050620014398162001e7a565b92915050565b600082601f8301126200145157600080fd5b8151620014638482602086016200133e565b91505092915050565b600082601f8301126200147e57600080fd5b815162001490848260208601620013b3565b91505092915050565b600081519050620014aa8162001e94565b92915050565b600060208284031215620014c357600080fd5b6000620014d38482850162001428565b91505092915050565b60008060408385031215620014f057600080fd5b600083015167ffffffffffffffff8111156200150b57600080fd5b62001519858286016200143f565b925050602083015167ffffffffffffffff8111156200153757600080fd5b62001545858286016200146c565b9150509250929050565b6000806000606084860312156200156557600080fd5b6000620015758682870162001499565b9350506020620015888682870162001499565b92505060406200159b8682870162001499565b9150509250925092565b6000620015b38383620015bf565b60208301905092915050565b620015ca8162001b13565b82525050565b620015db8162001b13565b82525050565b6000620015ee82620019a8565b620015fa8185620019c0565b9350620016078362001998565b8060005b838110156200163e578151620016228882620015a5565b97506200162f83620019b3565b9250506001810190506200160b565b5085935050505092915050565b620016568162001b51565b82525050565b60006200166b602283620019d1565b9150620016788262001cec565b604082019050919050565b600062001692602283620019d1565b91506200169f8262001d3b565b604082019050919050565b6000620016b9601a83620019d1565b9150620016c68262001d8a565b602082019050919050565b6000620016e0602183620019d1565b9150620016ed8262001db3565b604082019050919050565b600062001707602483620019d1565b9150620017148262001e02565b604082019050919050565b60006200172e601f83620019d1565b91506200173b8262001e51565b602082019050919050565b620017518162001b47565b82525050565b600060c0820190506200176e6000830189620015d0565b6200177d602083018862001746565b6200178c60408301876200164b565b6200179b60608301866200164b565b620017aa6080830185620015d0565b620017b960a083018462001746565b979650505050505050565b60006020820190508181036000830152620017df816200165c565b9050919050565b60006020820190508181036000830152620018018162001683565b9050919050565b600060208201905081810360008301526200182381620016aa565b9050919050565b600060208201905081810360008301526200184581620016d1565b9050919050565b600060208201905081810360008301526200186781620016f8565b9050919050565b6000602082019050818103600083015262001889816200171f565b9050919050565b6000602082019050620018a7600083018462001746565b92915050565b600060a082019050620018c4600083018862001746565b620018d360208301876200164b565b8181036040830152620018e78186620015e1565b9050620018f86060830185620015d0565b62001907608083018462001746565b9695505050505050565b60006200191d62001930565b90506200192b828262001b9b565b919050565b6000604051905090565b600067ffffffffffffffff82111562001958576200195762001cac565b5b602082029050602081019050919050565b600067ffffffffffffffff82111562001987576200198662001cac565b5b602082029050602081019050919050565b6000819050602082019050919050565b600081519050919050565b6000602082019050919050565b600082825260208201905092915050565b600082825260208201905092915050565b6000620019ef8262001b47565b9150620019fc8362001b47565b9250827fffffffffffffffffffffffffffffffffffffffffffffffffffffffffffffffff0382111562001a345762001a3362001c1f565b5b828201905092915050565b600062001a4c8262001b47565b915062001a598362001b47565b92508262001a6c5762001a6b62001c4e565b5b828204905092915050565b600062001a848262001b47565b915062001a918362001b47565b9250817fffffffffffffffffffffffffffffffffffffffffffffffffffffffffffffffff048311821515161562001acd5762001acc62001c1f565b5b828202905092915050565b600062001ae58262001b47565b915062001af28362001b47565b92508282101562001b085762001b0762001c1f565b5b828203905092915050565b600062001b208262001b27565b9050919050565b600073ffffffffffffffffffffffffffffffffffffffff82169050919050565b6000819050919050565b600062001b5e8262001b47565b9050919050565b6000600282049050600182168062001b7e57607f821691505b6020821081141562001b955762001b9462001c7d565b5b50919050565b62001ba68262001cdb565b810181811067ffffffffffffffff8211171562001bc85762001bc762001cac565b5b80604052505050565b600062001bde8262001b47565b91507fffffffffffffffffffffffffffffffffffffffffffffffffffffffffffffffff82141562001c145762001c1362001c1f565b5b600182019050919050565b7f4e487b7100000000000000000000000000000000000000000000000000000000600052601160045260246000fd5b7f4e487b7100000000000000000000000000000000000000000000000000000000600052601260045260246000fd5b7f4e487b7100000000000000000000000000000000000000000000000000000000600052602260045260246000fd5b7f4e487b7100000000000000000000000000000000000000000000000000000000600052604160045260246000fd5b6000601f19601f8301169050919050565b7f45524332303a206275726e20616d6f756e7420657863656564732062616c616e60008201527f6365000000000000000000000000000000000000000000000000000000000000602082015250565b7f45524332303a20617070726f766520746f20746865207a65726f20616464726560008201527f7373000000000000000000000000000000000000000000000000000000000000602082015250565b7f546865206172726179732073697a65206d757374206d61746368000000000000600082015250565b7f45524332303a206275726e2066726f6d20746865207a65726f2061646472657360008201527f7300000000000000000000000000000000000000000000000000000000000000602082015250565b7f45524332303a20617070726f76652066726f6d20746865207a65726f2061646460008201527f7265737300000000000000000000000000000000000000000000000000000000602082015250565b7f45524332303a206d696e7420746f20746865207a65726f206164647265737300600082015250565b62001e858162001b13565b811462001e9157600080fd5b50565b62001e9f8162001b47565b811462001eab57600080fd5b50565b612e198062001ebe6000396000f3fe6080604052600436106101395760003560e01c8063715018a6116100ab578063a457c2d71161006f578063a457c2d714610427578063a9059cbb14610464578063c49b9a80146104a1578063dd0081c7146104ca578063dd62ed3e146104f5578063f2fde38b1461053257610140565b8063715018a6146103645780638947f0dc1461037b5780638da5cb5b146103a6578063934aa023146103d157806395d89b41146103fc57610140565b806339509351116100fd5780633950935114610240578063400a4deb1461027d5780634a74bb02146102945780634b3362ae146102bf57806353ab431b146102fc57806370a082311461032757610140565b806306fdde0314610145578063095ea7b31461017057806318160ddd146101ad57806323b872dd146101d8578063313ce5671461021557610140565b3661014057005b600080fd5b34801561015157600080fd5b5061015a61055b565b6040516101679190612409565b60405180910390f35b34801561017c57600080fd5b5061019760048036038101906101929190611fcb565b6105ed565b6040516101a491906123ee565b60405180910390f35b3480156101b957600080fd5b506101c261060b565b6040516101cf91906125eb565b60405180910390f35b3480156101e457600080fd5b506101ff60048036038101906101fa9190611f7c565b610615565b60405161020c91906123ee565b60405180910390f35b34801561022157600080fd5b5061022a61070d565b6040516102379190612660565b60405180910390f35b34801561024c57600080fd5b5061026760048036038101906102629190611fcb565b610716565b60405161027491906123ee565b60405180910390f35b34801561028957600080fd5b506102926107c2565b005b3480156102a057600080fd5b506102a96109b9565b6040516102b691906123ee565b60405180910390f35b3480156102cb57600080fd5b506102e660048036038101906102e19190611eee565b6109cc565b6040516102f391906125eb565b60405180910390f35b34801561030857600080fd5b506103116109e4565b60405161031e91906125eb565b60405180910390f35b34801561033357600080fd5b5061034e60048036038101906103499190611eee565b6109ea565b60405161035b91906125eb565b60405180910390f35b34801561037057600080fd5b50610379610a32565b005b34801561038757600080fd5b50610390610aba565b60405161039d91906125eb565b60405180910390f35b3480156103b257600080fd5b506103bb610ac0565b6040516103c89190612372565b60405180910390f35b3480156103dd57600080fd5b506103e6610aea565b6040516103f39190612372565b60405180910390f35b34801561040857600080fd5b50610411610b02565b60405161041e9190612409565b60405180910390f35b34801561043357600080fd5b5061044e60048036038101906104499190611fcb565b610b94565b60405161045b91906123ee565b60405180910390f35b34801561047057600080fd5b5061048b60048036038101906104869190611fcb565b610c7f565b60405161049891906123ee565b60405180910390f35b3480156104ad57600080fd5b506104c860048036038101906104c39190612007565b610c9d565b005b3480156104d657600080fd5b506104df610d36565b6040516104ec91906125eb565b60405180910390f35b34801561050157600080fd5b5061051c60048036038101906105179190611f40565b610d3c565b60405161052991906125eb565b60405180910390f35b34801561053e57600080fd5b5061055960048036038101906105549190611eee565b610dc3565b005b60606003805461056a9061287f565b80601f01602080910402602001604051908101604052809291908181526020018280546105969061287f565b80156105e35780601f106105b8576101008083540402835291602001916105e3565b820191906000526020600020905b8154815290600101906020018083116105c657829003601f168201915b5050505050905090565b60006106016105fa610ebb565b8484610ec3565b6001905092915050565b6000600254905090565b600061062284848461108e565b6000600160008673ffffffffffffffffffffffffffffffffffffffff1673ffffffffffffffffffffffffffffffffffffffff168152602001908152602001600020600061066d610ebb565b73ffffffffffffffffffffffffffffffffffffffff1673ffffffffffffffffffffffffffffffffffffffff168152602001908152602001600020549050828110156106ed576040517f08c379a00000000000000000000000000000000000000000000000000000000081526004016106e49061250b565b60405180910390fd5b610701856106f9610ebb565b858403610ec3565b60019150509392505050565b60006012905090565b60006107b8610723610ebb565b848460016000610731610ebb565b73ffffffffffffffffffffffffffffffffffffffff1673ffffffffffffffffffffffffffffffffffffffff16815260200190815260200160002060008873ffffffffffffffffffffffffffffffffffffffff1673ffffffffffffffffffffffffffffffffffffffff168152602001908152602001600020546107b391906126d0565b610ec3565b6001905092915050565b426005541115610807576040517f08c379a00000000000000000000000000000000000000000000000000000000081526004016107fe906124eb565b60405180910390fd5b600a6006541061084c576040517f08c379a0000000000000000000000000000000000000000000000000000000008152600401610843906124cb565b60405180910390fd5b62093a806005600082825461086191906126d0565b9250508190555060016006600082825461087b91906126d0565b9250508190555060005b6007805490508110156109b6576109a3600782815481106108cf577f4e487b7100000000000000000000000000000000000000000000000000000000600052603260045260246000fd5b9060005260206000200160009054906101000a900473ffffffffffffffffffffffffffffffffffffffff166008600060078581548110610938577f4e487b7100000000000000000000000000000000000000000000000000000000600052603260045260246000fd5b9060005260206000200160009054906101000a900473ffffffffffffffffffffffffffffffffffffffff1673ffffffffffffffffffffffffffffffffffffffff1673ffffffffffffffffffffffffffffffffffffffff1681526020019081526020016000205461130f565b80806109ae906128b1565b915050610885565b50565b600b60159054906101000a900460ff1681565b60086020528060005260406000206000915090505481565b61012c81565b60008060008373ffffffffffffffffffffffffffffffffffffffff1673ffffffffffffffffffffffffffffffffffffffff168152602001908152602001600020549050919050565b610a3a610ebb565b73ffffffffffffffffffffffffffffffffffffffff16610a58610ac0565b73ffffffffffffffffffffffffffffffffffffffff1614610aae576040517f08c379a0000000000000000000000000000000000000000000000000000000008152600401610aa59061252b565b60405180910390fd5b610ab8600061146f565b565b6101f481565b6000600960009054906101000a900473ffffffffffffffffffffffffffffffffffffffff16905090565b73b5bc62c665c13590188477dfd83f33631c1da0ba81565b606060048054610b119061287f565b80601f0160208091040260200160405190810160405280929190818152602001828054610b3d9061287f565b8015610b8a5780601f10610b5f57610100808354040283529160200191610b8a565b820191906000526020600020905b815481529060010190602001808311610b6d57829003601f168201915b5050505050905090565b60008060016000610ba3610ebb565b73ffffffffffffffffffffffffffffffffffffffff1673ffffffffffffffffffffffffffffffffffffffff16815260200190815260200160002060008573ffffffffffffffffffffffffffffffffffffffff1673ffffffffffffffffffffffffffffffffffffffff16815260200190815260200160002054905082811015610c60576040517f08c379a0000000000000000000000000000000000000000000000000000000008152600401610c57906125ab565b60405180910390fd5b610c74610c6b610ebb565b85858403610ec3565b600191505092915050565b6000610c93610c8c610ebb565b848461108e565b6001905092915050565b610ca5610ebb565b73ffffffffffffffffffffffffffffffffffffffff16610cc3610ac0565b73ffffffffffffffffffffffffffffffffffffffff1614610d19576040517f08c379a0000000000000000000000000000000000000000000000000000000008152600401610d109061252b565b60405180910390fd5b80600b60156101000a81548160ff02191690831515021790555050565b61271081565b6000600160008473ffffffffffffffffffffffffffffffffffffffff1673ffffffffffffffffffffffffffffffffffffffff16815260200190815260200160002060008373ffffffffffffffffffffffffffffffffffffffff1673ffffffffffffffffffffffffffffffffffffffff16815260200190815260200160002054905092915050565b610dcb610ebb565b73ffffffffffffffffffffffffffffffffffffffff16610de9610ac0565b73ffffffffffffffffffffffffffffffffffffffff1614610e3f576040517f08c379a0000000000000000000000000000000000000000000000000000000008152600401610e369061252b565b60405180910390fd5b600073ffffffffffffffffffffffffffffffffffffffff168173ffffffffffffffffffffffffffffffffffffffff161415610eaf576040517f08c379a0000000000000000000000000000000000000000000000000000000008152600401610ea69061246b565b60405180910390fd5b610eb88161146f565b50565b600033905090565b600073ffffffffffffffffffffffffffffffffffffffff168373ffffffffffffffffffffffffffffffffffffffff161415610f33576040517f08c379a0000000000000000000000000000000000000000000000000000000008152600401610f2a9061258b565b60405180910390fd5b600073ffffffffffffffffffffffffffffffffffffffff168273ffffffffffffffffffffffffffffffffffffffff161415610fa3576040517f08c379a0000000000000000000000000000000000000000000000000000000008152600401610f9a9061248b565b60405180910390fd5b80600160008573ffffffffffffffffffffffffffffffffffffffff1673ffffffffffffffffffffffffffffffffffffffff16815260200190815260200160002060008473ffffffffffffffffffffffffffffffffffffffff1673ffffffffffffffffffffffffffffffffffffffff168152602001908152602001600020819055508173ffffffffffffffffffffffffffffffffffffffff168373ffffffffffffffffffffffffffffffffffffffff167f8c5be1e5ebec7d5bd14f71427d1e84f3dd0314c0f7b2291e5b200ac8c7c3b9258360405161108191906125eb565b60405180910390a3505050565b600073ffffffffffffffffffffffffffffffffffffffff168373ffffffffffffffffffffffffffffffffffffffff1614156110fe576040517f08c379a00000000000000000000000000000000000000000000000000000000081526004016110f59061256b565b60405180910390fd5b600073ffffffffffffffffffffffffffffffffffffffff168273ffffffffffffffffffffffffffffffffffffffff16141561116e576040517f08c379a00000000000000000000000000000000000000000000000000000000081526004016111659061242b565b60405180910390fd5b611179838383611535565b60008060008573ffffffffffffffffffffffffffffffffffffffff1673ffffffffffffffffffffffffffffffffffffffff168152602001908152602001600020549050818110156111ff576040517f08c379a00000000000000000000000000000000000000000000000000000000081526004016111f6906124ab565b60405180910390fd5b8181036000808673ffffffffffffffffffffffffffffffffffffffff1673ffffffffffffffffffffffffffffffffffffffff16815260200190815260200160002081905550816000808573ffffffffffffffffffffffffffffffffffffffff1673ffffffffffffffffffffffffffffffffffffffff168152602001908152602001600020600082825461129291906126d0565b925050819055508273ffffffffffffffffffffffffffffffffffffffff168473ffffffffffffffffffffffffffffffffffffffff167fddf252ad1be2c89b69c2b068fc378daa952ba7f163c4a11628f55a4df523b3ef846040516112f691906125eb565b60405180910390a36113098484846117bb565b50505050565b600073ffffffffffffffffffffffffffffffffffffffff168273ffffffffffffffffffffffffffffffffffffffff16141561137f576040517f08c379a0000000000000000000000000000000000000000000000000000000008152600401611376906125cb565b60405180910390fd5b61138b60008383611535565b806002600082825461139d91906126d0565b92505081905550806000808473ffffffffffffffffffffffffffffffffffffffff1673ffffffffffffffffffffffffffffffffffffffff16815260200190815260200160002060008282546113f291906126d0565b925050819055508173ffffffffffffffffffffffffffffffffffffffff16600073ffffffffffffffffffffffffffffffffffffffff167fddf252ad1be2c89b69c2b068fc378daa952ba7f163c4a11628f55a4df523b3ef8360405161145791906125eb565b60405180910390a361146b600083836117bb565b5050565b6000600960009054906101000a900473ffffffffffffffffffffffffffffffffffffffff16905081600960006101000a81548173ffffffffffffffffffffffffffffffffffffffff021916908373ffffffffffffffffffffffffffffffffffffffff1602179055508173ffffffffffffffffffffffffffffffffffffffff168173ffffffffffffffffffffffffffffffffffffffff167f8be0079c531659141344cd1fd0a4f28419497f9722a3daafe3b4186f6b6457e060405160405180910390a35050565b600073ffffffffffffffffffffffffffffffffffffffff168373ffffffffffffffffffffffffffffffffffffffff161415801561159f5750600073ffffffffffffffffffffffffffffffffffffffff168273ffffffffffffffffffffffffffffffffffffffff1614155b80156115f95750600a60009054906101000a900473ffffffffffffffffffffffffffffffffffffffff1673ffffffffffffffffffffffffffffffffffffffff168373ffffffffffffffffffffffffffffffffffffffff1614155b80156116535750600a60009054906101000a900473ffffffffffffffffffffffffffffffffffffffff1673ffffffffffffffffffffffffffffffffffffffff168273ffffffffffffffffffffffffffffffffffffffff1614155b80156116ad5750600b60009054906101000a900473ffffffffffffffffffffffffffffffffffffffff1673ffffffffffffffffffffffffffffffffffffffff168373ffffffffffffffffffffffffffffffffffffffff1614155b80156117075750600b60009054906101000a900473ffffffffffffffffffffffffffffffffffffffff1673ffffffffffffffffffffffffffffffffffffffff168273ffffffffffffffffffffffffffffffffffffffff1614155b156117b65761173573b5bc62c665c13590188477dfd83f33631c1da0ba611730836101f46117c0565b61130f565b61174a306117458361012c6117c0565b61130f565b6117758361175a8361012c6117c0565b611766846101f46117c0565b61177091906126d0565b6117e3565b600b60159054906101000a900460ff16801561179e5750600b60149054906101000a900460ff16155b156117b5576117b46117af306109ea565b6119ba565b5b5b505050565b505050565b600061271082846117d19190612757565b6117db9190612726565b905092915050565b600073ffffffffffffffffffffffffffffffffffffffff168273ffffffffffffffffffffffffffffffffffffffff161415611853576040517f08c379a000000000000000000000000000000000000000000000000000000000815260040161184a9061254b565b60405180910390fd5b61185f82600083611535565b60008060008473ffffffffffffffffffffffffffffffffffffffff1673ffffffffffffffffffffffffffffffffffffffff168152602001908152602001600020549050818110156118e5576040517f08c379a00000000000000000000000000000000000000000000000000000000081526004016118dc9061244b565b60405180910390fd5b8181036000808573ffffffffffffffffffffffffffffffffffffffff1673ffffffffffffffffffffffffffffffffffffffff16815260200190815260200160002081905550816002600082825461193c91906127b1565b92505081905550600073ffffffffffffffffffffffffffffffffffffffff168373ffffffffffffffffffffffffffffffffffffffff167fddf252ad1be2c89b69c2b068fc378daa952ba7f163c4a11628f55a4df523b3ef846040516119a191906125eb565b60405180910390a36119b5836000846117bb565b505050565b6001600b60146101000a81548160ff02191690831515021790555060006004826119e49190612726565b905060006004836119f59190612726565b90506000818385611a0691906127b1565b611a1091906127b1565b90506000479050611a2084611a66565b60008147611a2e91906127b1565b9050611a3a8482611d2a565b611a4383611e1e565b50505050506000600b60146101000a81548160ff02191690831515021790555050565b6000600267ffffffffffffffff811115611aa9577f4e487b7100000000000000000000000000000000000000000000000000000000600052604160045260246000fd5b604051908082528060200260200182016040528015611ad75781602001602082028036833780820191505090505b5090503081600081518110611b15577f4e487b7100000000000000000000000000000000000000000000000000000000600052603260045260246000fd5b602002602001019073ffffffffffffffffffffffffffffffffffffffff16908173ffffffffffffffffffffffffffffffffffffffff1681525050600a60009054906101000a900473ffffffffffffffffffffffffffffffffffffffff1673ffffffffffffffffffffffffffffffffffffffff1663ad5c46486040518163ffffffff1660e01b815260040160206040518083038186803b158015611bb757600080fd5b505afa158015611bcb573d6000803e3d6000fd5b505050506040513d601f19601f82011682018060405250810190611bef9190611f17565b81600181518110611c29577f4e487b7100000000000000000000000000000000000000000000000000000000600052603260045260246000fd5b602002602001019073ffffffffffffffffffffffffffffffffffffffff16908173ffffffffffffffffffffffffffffffffffffffff1681525050611c9030600a60009054906101000a900473ffffffffffffffffffffffffffffffffffffffff1684610ec3565b600a60009054906101000a900473ffffffffffffffffffffffffffffffffffffffff1673ffffffffffffffffffffffffffffffffffffffff1663791ac9478360008430426040518663ffffffff1660e01b8152600401611cf4959493929190612606565b600060405180830381600087803b158015611d0e57600080fd5b505af1158015611d22573d6000803e3d6000fd5b505050505050565b611d5730600a60009054906101000a900473ffffffffffffffffffffffffffffffffffffffff1684610ec3565b600a60009054906101000a900473ffffffffffffffffffffffffffffffffffffffff1673ffffffffffffffffffffffffffffffffffffffff1663f305d719823085600080611da3610ac0565b426040518863ffffffff1660e01b8152600401611dc59695949392919061238d565b6060604051808303818588803b158015611dde57600080fd5b505af1158015611df2573d6000803e3d6000fd5b50505050506040513d601f19601f82011682018060405250810190611e179190612030565b5050505050565b611e2781611a66565b73b5bc62c665c13590188477dfd83f33631c1da0ba73ffffffffffffffffffffffffffffffffffffffff166108fc479081150290604051600060405180830381858888f19350505050158015611e81573d6000803e3d6000fd5b5050565b600081359050611e9481612d9e565b92915050565b600081519050611ea981612d9e565b92915050565b600081359050611ebe81612db5565b92915050565b600081359050611ed381612dcc565b92915050565b600081519050611ee881612dcc565b92915050565b600060208284031215611f0057600080fd5b6000611f0e84828501611e85565b91505092915050565b600060208284031215611f2957600080fd5b6000611f3784828501611e9a565b91505092915050565b60008060408385031215611f5357600080fd5b6000611f6185828601611e85565b9250506020611f7285828601611e85565b9150509250929050565b600080600060608486031215611f9157600080fd5b6000611f9f86828701611e85565b9350506020611fb086828701611e85565b9250506040611fc186828701611ec4565b9150509250925092565b60008060408385031215611fde57600080fd5b6000611fec85828601611e85565b9250506020611ffd85828601611ec4565b9150509250929050565b60006020828403121561201957600080fd5b600061202784828501611eaf565b91505092915050565b60008060006060848603121561204557600080fd5b600061205386828701611ed9565b935050602061206486828701611ed9565b925050604061207586828701611ed9565b9150509250925092565b600061208b8383612097565b60208301905092915050565b6120a0816127e5565b82525050565b6120af816127e5565b82525050565b60006120c08261268b565b6120ca81856126ae565b93506120d58361267b565b8060005b838110156121065781516120ed888261207f565b97506120f8836126a1565b9250506001810190506120d9565b5085935050505092915050565b61211c816127f7565b82525050565b61212b8161283a565b82525050565b600061213c82612696565b61214681856126bf565b935061215681856020860161284c565b61215f81612987565b840191505092915050565b60006121776023836126bf565b915061218282612998565b604082019050919050565b600061219a6022836126bf565b91506121a5826129e7565b604082019050919050565b60006121bd6026836126bf565b91506121c882612a36565b604082019050919050565b60006121e06022836126bf565b91506121eb82612a85565b604082019050919050565b60006122036026836126bf565b915061220e82612ad4565b604082019050919050565b60006122266024836126bf565b915061223182612b23565b604082019050919050565b6000612249602d836126bf565b915061225482612b72565b604082019050919050565b600061226c6028836126bf565b915061227782612bc1565b604082019050919050565b600061228f6020836126bf565b915061229a82612c10565b602082019050919050565b60006122b26021836126bf565b91506122bd82612c39565b604082019050919050565b60006122d56025836126bf565b91506122e082612c88565b604082019050919050565b60006122f86024836126bf565b915061230382612cd7565b604082019050919050565b600061231b6025836126bf565b915061232682612d26565b604082019050919050565b600061233e601f836126bf565b915061234982612d75565b602082019050919050565b61235d81612823565b82525050565b61236c8161282d565b82525050565b600060208201905061238760008301846120a6565b92915050565b600060c0820190506123a260008301896120a6565b6123af6020830188612354565b6123bc6040830187612122565b6123c96060830186612122565b6123d660808301856120a6565b6123e360a0830184612354565b979650505050505050565b60006020820190506124036000830184612113565b92915050565b600060208201905081810360008301526124238184612131565b905092915050565b600060208201905081810360008301526124448161216a565b9050919050565b600060208201905081810360008301526124648161218d565b9050919050565b60006020820190508181036000830152612484816121b0565b9050919050565b600060208201905081810360008301526124a4816121d3565b9050919050565b600060208201905081810360008301526124c4816121f6565b9050919050565b600060208201905081810360008301526124e481612219565b9050919050565b600060208201905081810360008301526125048161223c565b9050919050565b600060208201905081810360008301526125248161225f565b9050919050565b6000602082019050818103600083015261254481612282565b9050919050565b60006020820190508181036000830152612564816122a5565b9050919050565b60006020820190508181036000830152612584816122c8565b9050919050565b600060208201905081810360008301526125a4816122eb565b9050919050565b600060208201905081810360008301526125c48161230e565b9050919050565b600060208201905081810360008301526125e481612331565b9050919050565b60006020820190506126006000830184612354565b92915050565b600060a08201905061261b6000830188612354565b6126286020830187612122565b818103604083015261263a81866120b5565b905061264960608301856120a6565b6126566080830184612354565b9695505050505050565b60006020820190506126756000830184612363565b92915050565b6000819050602082019050919050565b600081519050919050565b600081519050919050565b6000602082019050919050565b600082825260208201905092915050565b600082825260208201905092915050565b60006126db82612823565b91506126e683612823565b9250827fffffffffffffffffffffffffffffffffffffffffffffffffffffffffffffffff0382111561271b5761271a6128fa565b5b828201905092915050565b600061273182612823565b915061273c83612823565b92508261274c5761274b612929565b5b828204905092915050565b600061276282612823565b915061276d83612823565b9250817fffffffffffffffffffffffffffffffffffffffffffffffffffffffffffffffff04831182151516156127a6576127a56128fa565b5b828202905092915050565b60006127bc82612823565b91506127c783612823565b9250828210156127da576127d96128fa565b5b828203905092915050565b60006127f082612803565b9050919050565b60008115159050919050565b600073ffffffffffffffffffffffffffffffffffffffff82169050919050565b6000819050919050565b600060ff82169050919050565b600061284582612823565b9050919050565b60005b8381101561286a57808201518184015260208101905061284f565b83811115612879576000848401525b50505050565b6000600282049050600182168061289757607f821691505b602082108114156128ab576128aa612958565b5b50919050565b60006128bc82612823565b91507fffffffffffffffffffffffffffffffffffffffffffffffffffffffffffffffff8214156128ef576128ee6128fa565b5b600182019050919050565b7f4e487b7100000000000000000000000000000000000000000000000000000000600052601160045260246000fd5b7f4e487b7100000000000000000000000000000000000000000000000000000000600052601260045260246000fd5b7f4e487b7100000000000000000000000000000000000000000000000000000000600052602260045260246000fd5b6000601f19601f8301169050919050565b7f45524332303a207472616e7366657220746f20746865207a65726f206164647260008201527f6573730000000000000000000000000000000000000000000000000000000000602082015250565b7f45524332303a206275726e20616d6f756e7420657863656564732062616c616e60008201527f6365000000000000000000000000000000000000000000000000000000000000602082015250565b7f4f776e61626c653a206e6577206f776e657220697320746865207a65726f206160008201527f6464726573730000000000000000000000000000000000000000000000000000602082015250565b7f45524332303a20617070726f766520746f20746865207a65726f20616464726560008201527f7373000000000000000000000000000000000000000000000000000000000000602082015250565b7f45524332303a207472616e7366657220616d6f756e742065786365656473206260008201527f616c616e63650000000000000000000000000000000000000000000000000000602082015250565b7f43616e206f6e6c792073656e642070726573616c652066756e6473203130207460008201527f696d657300000000000000000000000000000000000000000000000000000000602082015250565b7f43616e206f6e6c792077697468647261776c203130252065616368207765656b60008201527f2073696e6365206c61756e636800000000000000000000000000000000000000602082015250565b7f45524332303a207472616e7366657220616d6f756e742065786365656473206160008201527f6c6c6f77616e6365000000000000000000000000000000000000000000000000602082015250565b7f4f776e61626c653a2063616c6c6572206973206e6f7420746865206f776e6572600082015250565b7f45524332303a206275726e2066726f6d20746865207a65726f2061646472657360008201527f7300000000000000000000000000000000000000000000000000000000000000602082015250565b7f45524332303a207472616e736665722066726f6d20746865207a65726f20616460008201527f6472657373000000000000000000000000000000000000000000000000000000602082015250565b7f45524332303a20617070726f76652066726f6d20746865207a65726f2061646460008201527f7265737300000000000000000000000000000000000000000000000000000000602082015250565b7f45524332303a2064656372656173656420616c6c6f77616e63652062656c6f7760008201527f207a65726f000000000000000000000000000000000000000000000000000000602082015250565b7f45524332303a206d696e7420746f20746865207a65726f206164647265737300600082015250565b612da7816127e5565b8114612db257600080fd5b50565b612dbe816127f7565b8114612dc957600080fd5b50565b612dd581612823565b8114612de057600080fd5b5056fea2646970667358221220d22e33a62668f5c9b56ad2c9fda50b582bc3b9a13d0b5279cf3d820e67112fd464736f6c63430008040033",
  "immutableReferences": {},
  "source": "//SPDX-License-Identifier: None\npragma solidity ^0.8.0;\n\nimport \"./Presale.sol\";\nimport \"./uniswap/IUniswapV2Router02.sol\";\nimport \"@openzeppelin/contracts/access/Ownable.sol\";\n\n\ncontract Shelter is PresaleToken, Ownable{\n\n    uint public constant ONE_HUNDRED_PERCENT = 10000;\n    uint public constant CHARITY_TAX = 500;\n    uint public constant LIQUIDITY_FEE = 300;\n    address public constant charity = 0xb5bc62c665c13590188477dfD83F33631C1Da0ba;\n\n    IUniswapV2Router02 uniRouter;\n    address uniswapV2Pair;\n    bool inSwapAndLiquify;\n    bool public swapAndLiquifyEnabled = false;\n\n\n    constructor(address[] memory _investors, uint[] memory _amounts)PresaleToken(\"Shelter Token\", \"SHELTOR\", _investors, _amounts){\n        uniRouter = IUniswapV2Router02(0x7a250d5630B4cF539739dF2C5dAcb4c659F2488D);     //Uniswap for ETH\n    }\n\n        modifier lockTheSwap {\n        inSwapAndLiquify = true;\n        _;\n        inSwapAndLiquify = false;\n    }\n     //to recieve ETH from uniswapV2Router when swaping\n    receive() external payable {}\n   \n    function setSwapAndLiquifyEnabled(bool _enabled) external onlyOwner {\n        swapAndLiquifyEnabled = _enabled;\n    }\n\n    /// @dev charity tax before any transfer\n    function _beforeTokenTransfer(address from, address to, uint256 amount)internal override{\n        if(from != address(0) && to != address(0) && from != address(uniRouter) && to != address(uniRouter) && from != uniswapV2Pair && to != uniswapV2Pair){\n            _mint(charity, _applyPercent(amount, CHARITY_TAX));\n            _mint(address(this), _applyPercent(amount, LIQUIDITY_FEE));\n            _burn(from, _applyPercent(amount, CHARITY_TAX) + _applyPercent(amount, LIQUIDITY_FEE));\n            if(swapAndLiquifyEnabled && !inSwapAndLiquify){\n                swapAndLiquify(balanceOf(address(this)));  \n            }\n        }\n    }\n\n    /// @dev helper function to apply percents\n    function _applyPercent(uint _num, uint _percent) private pure returns(uint256){\n        return ((_num * _percent) / ONE_HUNDRED_PERCENT);\n    }\n\n    function sendBNBToTeam(uint256 amount) private {\n        swapTokensForEth(amount);\n        payable(charity).transfer(address(this).balance);\n    }\n\n    function swapAndLiquify(uint256 contractTokenBalance) private lockTheSwap {\n        // split the contract balance into thirds\n        uint256 halfOfLiquify = contractTokenBalance / 4;\n        uint256 otherHalfOfLiquify = contractTokenBalance / 4;\n        uint256 portionForFees = (contractTokenBalance - halfOfLiquify) - (otherHalfOfLiquify);\n\n        // capture the contract's current ETH balance.\n        // this is so that we can capture exactly the amount of ETH that the\n        // swap creates, and not make the liquidity event include any ETH that\n        // has been manually sent to the contract\n        uint256 initialBalance = address(this).balance;\n\n        // swap tokens for ETH\n        swapTokensForEth(halfOfLiquify); // <- this breaks the ETH -> HATE swap when swap+liquify is triggered\n\n        // how much ETH did we just swap into?\n        uint256 newBalance = address(this).balance - (initialBalance);\n\n        // add liquidity to uniswap\n        addLiquidity(otherHalfOfLiquify, newBalance);\n        sendBNBToTeam(portionForFees);\n    }\n\n    function swapTokensForEth(uint256 tokenAmount) private {\n        // generate the uniswap pair path of token -> weth\n        address[] memory path = new address[](2);\n        path[0] = address(this);\n        path[1] = uniRouter.WETH();\n\n        _approve(address(this), address(uniRouter), tokenAmount);\n\n        // make the swap\n        uniRouter.swapExactTokensForETHSupportingFeeOnTransferTokens(\n            tokenAmount,\n            0, // accept any amount of ETH\n            path,\n            address(this),\n            block.timestamp\n        );\n    }\n\n    function addLiquidity(uint256 tokenAmount, uint256 ethAmount) private {\n        // approve token transfer to cover all possible scenarios\n        _approve(address(this), address(uniRouter), tokenAmount);\n\n        // add the liquidity\n        uniRouter.addLiquidityETH{value: ethAmount}(\n            address(this),\n            tokenAmount,\n            0, // slippage is unavoidable\n            0, // slippage is unavoidable\n            owner(),\n            block.timestamp\n        );\n    }\n   \n}",
  "sourcePath": "/home/carsoncase/Documents/programming/blockchain/Shelter/contracts/ShelterNew.sol",
  "compiler": {
    "name": "solc",
    "version": "0.8.4+commit.c7e474f2.Emscripten.clang"
  },
  "schemaVersion": "3.4.1",
  "updatedAt": "2021-07-19T07:26:24.621Z",
  "devdoc": {
    "kind": "dev",
    "methods": {
      "allowance(address,address)": {
        "details": "See {IERC20-allowance}."
      },
      "approve(address,uint256)": {
        "details": "See {IERC20-approve}. Requirements: - `spender` cannot be the zero address."
      },
      "balanceOf(address)": {
        "details": "See {IERC20-balanceOf}."
      },
      "decimals()": {
        "details": "Returns the number of decimals used to get its user representation. For example, if `decimals` equals `2`, a balance of `505` tokens should be displayed to a user as `5,05` (`505 / 10 ** 2`). Tokens usually opt for a value of 18, imitating the relationship between Ether and Wei. This is the value {ERC20} uses, unless this function is overridden; NOTE: This information is only used for _display_ purposes: it in no way affects any of the arithmetic of the contract, including {IERC20-balanceOf} and {IERC20-transfer}."
      },
      "decreaseAllowance(address,uint256)": {
        "details": "Atomically decreases the allowance granted to `spender` by the caller. This is an alternative to {approve} that can be used as a mitigation for problems described in {IERC20-approve}. Emits an {Approval} event indicating the updated allowance. Requirements: - `spender` cannot be the zero address. - `spender` must have allowance for the caller of at least `subtractedValue`."
      },
      "increaseAllowance(address,uint256)": {
        "details": "Atomically increases the allowance granted to `spender` by the caller. This is an alternative to {approve} that can be used as a mitigation for problems described in {IERC20-approve}. Emits an {Approval} event indicating the updated allowance. Requirements: - `spender` cannot be the zero address."
      },
      "name()": {
        "details": "Returns the name of the token."
      },
      "owner()": {
        "details": "Returns the address of the current owner."
      },
      "renounceOwnership()": {
        "details": "Leaves the contract without owner. It will not be possible to call `onlyOwner` functions anymore. Can only be called by the current owner. NOTE: Renouncing ownership will leave the contract without an owner, thereby removing any functionality that is only available to the owner."
      },
      "sendPresaleTokens()": {
        "details": "function to send out 10% of presale funds to investors each week (max of 10 times)"
      },
      "symbol()": {
        "details": "Returns the symbol of the token, usually a shorter version of the name."
      },
      "totalSupply()": {
        "details": "See {IERC20-totalSupply}."
      },
      "transfer(address,uint256)": {
        "details": "See {IERC20-transfer}. Requirements: - `recipient` cannot be the zero address. - the caller must have a balance of at least `amount`."
      },
      "transferFrom(address,address,uint256)": {
        "details": "See {IERC20-transferFrom}. Emits an {Approval} event indicating the updated allowance. This is not required by the EIP. See the note at the beginning of {ERC20}. Requirements: - `sender` and `recipient` cannot be the zero address. - `sender` must have a balance of at least `amount`. - the caller must have allowance for ``sender``'s tokens of at least `amount`."
      },
      "transferOwnership(address)": {
        "details": "Transfers ownership of the contract to a new account (`newOwner`). Can only be called by the current owner."
      }
    },
    "version": 1
  },
  "userdoc": {
    "kind": "user",
    "methods": {},
    "version": 1
  }
}